{
  "contractName": "DistributorRole",
  "abi": [
    {
      "inputs": [],
      "stateMutability": "nonpayable",
      "type": "constructor"
    },
    {
      "anonymous": false,
      "inputs": [
        {
          "indexed": true,
          "internalType": "address",
          "name": "account",
          "type": "address"
        }
      ],
      "name": "DistributorAdded",
      "type": "event"
    },
    {
      "anonymous": false,
      "inputs": [
        {
          "indexed": true,
          "internalType": "address",
          "name": "account",
          "type": "address"
        }
      ],
      "name": "DistributorRemoved",
      "type": "event"
    },
    {
      "anonymous": false,
      "inputs": [
        {
          "indexed": true,
          "internalType": "address",
          "name": "oldOwner",
          "type": "address"
        },
        {
          "indexed": true,
          "internalType": "address",
          "name": "newOwner",
          "type": "address"
        }
      ],
      "name": "TransferOwnership",
      "type": "event"
    },
    {
      "inputs": [],
      "name": "isOwner",
      "outputs": [
        {
          "internalType": "bool",
          "name": "",
          "type": "bool"
        }
      ],
      "stateMutability": "view",
      "type": "function"
    },
    {
      "inputs": [],
      "name": "owner",
      "outputs": [
        {
          "internalType": "address",
          "name": "",
          "type": "address"
        }
      ],
      "stateMutability": "view",
      "type": "function"
    },
    {
      "inputs": [],
      "name": "renounceOwnership",
      "outputs": [],
      "stateMutability": "nonpayable",
      "type": "function"
    },
    {
      "inputs": [
        {
          "internalType": "address",
          "name": "newOwner",
          "type": "address"
        }
      ],
      "name": "transferOwnership",
      "outputs": [],
      "stateMutability": "nonpayable",
      "type": "function"
    },
    {
      "inputs": [
        {
          "internalType": "address",
          "name": "account",
          "type": "address"
        }
      ],
      "name": "isDistributor",
      "outputs": [
        {
          "internalType": "bool",
          "name": "",
          "type": "bool"
        }
      ],
      "stateMutability": "view",
      "type": "function"
    },
    {
      "inputs": [
        {
          "internalType": "address",
          "name": "account",
          "type": "address"
        }
      ],
      "name": "addDistributor",
      "outputs": [],
      "stateMutability": "nonpayable",
      "type": "function"
    },
    {
      "inputs": [],
      "name": "renounceDistributor",
      "outputs": [],
      "stateMutability": "nonpayable",
      "type": "function"
    }
  ],
  "bytecode": "0x608060405234801561001057600080fd5b50336000806101000a81548173ffffffffffffffffffffffffffffffffffffffff021916908373ffffffffffffffffffffffffffffffffffffffff16021790555060008054906101000a900473ffffffffffffffffffffffffffffffffffffffff1673ffffffffffffffffffffffffffffffffffffffff16600073ffffffffffffffffffffffffffffffffffffffff167f5c486528ec3e3f0ea91181cff8116f02bfa350e03b8b6f12e00765adbb5af85c60405160405180910390a36100db336100e060201b60201c565b610280565b6100f881600161013e60201b6102ec1790919060201c565b8073ffffffffffffffffffffffffffffffffffffffff167fddbf200aa634dc3fb81cfd68583dd1040d1c751d335e1d86b631bde3e977fea860405160405180910390a250565b600073ffffffffffffffffffffffffffffffffffffffff168173ffffffffffffffffffffffffffffffffffffffff160361017757600080fd5b61018782826101ef60201b60201c565b1561019157600080fd5b60018260000160008373ffffffffffffffffffffffffffffffffffffffff1673ffffffffffffffffffffffffffffffffffffffff16815260200190815260200160002060006101000a81548160ff0219169083151502179055505050565b60008073ffffffffffffffffffffffffffffffffffffffff168273ffffffffffffffffffffffffffffffffffffffff160361022957600080fd5b8260000160008373ffffffffffffffffffffffffffffffffffffffff1673ffffffffffffffffffffffffffffffffffffffff16815260200190815260200160002060009054906101000a900460ff16905092915050565b6107a28061028f6000396000f3fe608060405234801561001057600080fd5b506004361061007d5760003560e01c80638da5cb5b1161005b5780638da5cb5b146100b25780638f0c86fa146100d05780638f32d59b14610100578063f2fde38b1461011e5761007d565b8063644241db14610082578063715018a61461008c5780637250e22414610096575b600080fd5b61008a61013a565b005b610094610145565b005b6100b060048036038101906100ab91906106df565b610214565b005b6100ba610232565b6040516100c7919061071b565b60405180910390f35b6100ea60048036038101906100e591906106df565b61025b565b6040516100f79190610751565b60405180910390f35b610108610278565b6040516101159190610751565b60405180910390f35b610138600480360381019061013391906106df565b6102cf565b005b61014333610397565b565b61014d610278565b61015657600080fd5b600073ffffffffffffffffffffffffffffffffffffffff1660008054906101000a900473ffffffffffffffffffffffffffffffffffffffff1673ffffffffffffffffffffffffffffffffffffffff167f5c486528ec3e3f0ea91181cff8116f02bfa350e03b8b6f12e00765adbb5af85c60405160405180910390a360008060006101000a81548173ffffffffffffffffffffffffffffffffffffffff021916908373ffffffffffffffffffffffffffffffffffffffff160217905550565b61021d3361025b565b61022657600080fd5b61022f816103f1565b50565b60008060009054906101000a900473ffffffffffffffffffffffffffffffffffffffff16905090565b600061027182600161044b90919063ffffffff16565b9050919050565b60008060009054906101000a900473ffffffffffffffffffffffffffffffffffffffff1673ffffffffffffffffffffffffffffffffffffffff163373ffffffffffffffffffffffffffffffffffffffff1614905090565b6102d7610278565b6102e057600080fd5b6102e9816104dc565b50565b600073ffffffffffffffffffffffffffffffffffffffff168173ffffffffffffffffffffffffffffffffffffffff160361032557600080fd5b61032f828261044b565b1561033957600080fd5b60018260000160008373ffffffffffffffffffffffffffffffffffffffff1673ffffffffffffffffffffffffffffffffffffffff16815260200190815260200160002060006101000a81548160ff0219169083151502179055505050565b6103ab8160016105d290919063ffffffff16565b8073ffffffffffffffffffffffffffffffffffffffff167f126174f6cf49c81cdb4a9214c6b8f037bef55b4ec31e4fc776cea2a1c8a88d5960405160405180910390a250565b6104058160016102ec90919063ffffffff16565b8073ffffffffffffffffffffffffffffffffffffffff167fddbf200aa634dc3fb81cfd68583dd1040d1c751d335e1d86b631bde3e977fea860405160405180910390a250565b60008073ffffffffffffffffffffffffffffffffffffffff168273ffffffffffffffffffffffffffffffffffffffff160361048557600080fd5b8260000160008373ffffffffffffffffffffffffffffffffffffffff1673ffffffffffffffffffffffffffffffffffffffff16815260200190815260200160002060009054906101000a900460ff16905092915050565b600073ffffffffffffffffffffffffffffffffffffffff168173ffffffffffffffffffffffffffffffffffffffff160361051557600080fd5b8073ffffffffffffffffffffffffffffffffffffffff1660008054906101000a900473ffffffffffffffffffffffffffffffffffffffff1673ffffffffffffffffffffffffffffffffffffffff167f5c486528ec3e3f0ea91181cff8116f02bfa350e03b8b6f12e00765adbb5af85c60405160405180910390a3806000806101000a81548173ffffffffffffffffffffffffffffffffffffffff021916908373ffffffffffffffffffffffffffffffffffffffff16021790555050565b600073ffffffffffffffffffffffffffffffffffffffff168173ffffffffffffffffffffffffffffffffffffffff160361060b57600080fd5b610615828261044b565b61061e57600080fd5b60008260000160008373ffffffffffffffffffffffffffffffffffffffff1673ffffffffffffffffffffffffffffffffffffffff16815260200190815260200160002060006101000a81548160ff0219169083151502179055505050565b600080fd5b600073ffffffffffffffffffffffffffffffffffffffff82169050919050565b60006106ac82610681565b9050919050565b6106bc816106a1565b81146106c757600080fd5b50565b6000813590506106d9816106b3565b92915050565b6000602082840312156106f5576106f461067c565b5b6000610703848285016106ca565b91505092915050565b610715816106a1565b82525050565b6000602082019050610730600083018461070c565b92915050565b60008115159050919050565b61074b81610736565b82525050565b60006020820190506107666000830184610742565b9291505056fea2646970667358221220cdf627094c6414d0d43c96d9cfebf041f5cb3f474f5acdfe6382758342cb9f3a64736f6c63430008110033",
  "immutableReferences": {},
  "source": "// SPDX-License-Identifier: MIT\r\npragma solidity ^0.8.17;\r\n\r\n// Import the library 'Roles'\r\nimport \"./Roles.sol\";\r\nimport \"../coffeecore/Ownable.sol\";\r\n\r\n// Define a contract 'DistributorRole' to manage this role - add, remove, check\r\ncontract DistributorRole is Ownable {\r\n  using Roles for Roles.Role;\r\n\r\n  // Define 2 events, one for Adding, and other for Removing\r\n  event DistributorAdded(address indexed account);\r\n  event DistributorRemoved(address indexed account);\r\n\r\n  // Define a struct 'distributors' by inheriting from 'Roles' library, struct Role\r\n  Roles.Role private distributors;\r\n\r\n  // In the constructor make the address that deploys this contract the 1st distributor\r\n  constructor() {\r\n    _addDistributor(msg.sender);\r\n  }\r\n\r\n  // Define a modifier that checks to see if msg.sender has the appropriate role\r\n  modifier onlyDistributor() {\r\n    require(isDistributor(msg.sender));\r\n    _;\r\n  }\r\n\r\n  // Define a function 'isDistributor' to check this role\r\n  function isDistributor(address account) public view returns (bool) {\r\n    return distributors.has(account);\r\n  }\r\n\r\n  // Define a function 'addDistributor' that adds this role\r\n  function addDistributor(address account) public onlyDistributor {\r\n    _addDistributor(account);\r\n  }\r\n\r\n  // Define a function 'renounceDistributor' to renounce this role\r\n  function renounceDistributor() public {\r\n    _removeDistributor(msg.sender);\r\n  }\r\n\r\n  // Define an internal function '_addDistributor' to add this role, called by 'addDistributor'\r\n  function _addDistributor(address account) internal {\r\n    distributors.add(account);\r\n    emit DistributorAdded(account);\r\n  }\r\n\r\n  // Define an internal function '_removeDistributor' to remove this role, called by 'removeDistributor'\r\n  function _removeDistributor(address account) internal {\r\n    distributors.remove(account);\r\n    emit DistributorRemoved(account);\r\n  }\r\n}",
  "sourcePath": "C:\\Users\\Edward\\Desktop\\Project 3\\nd1309-Project-6b-Example-Template\\project-6\\contracts\\coffeeaccesscontrol\\DistributorRole.sol",
  "compiler": {
    "name": "solc",
    "version": "0.8.17+commit.8df45f5f.Emscripten.clang"
  },
  "schemaVersion": "3.4.11",
  "updatedAt": "2022-12-17T23:02:16.165Z",
  "devdoc": {
    "kind": "dev",
    "methods": {},
    "version": 1
  },
  "userdoc": {
    "kind": "user",
    "methods": {
      "isOwner()": {
        "notice": "Check if the calling address is the owner of the contract"
      },
      "owner()": {
        "notice": "Look up the address of the owner"
      },
      "renounceOwnership()": {
        "notice": "Define a function to renounce ownerhip"
      },
      "transferOwnership(address)": {
        "notice": "Define a public function to transfer ownership"
      }
    },
    "version": 1
  }
}