{
  "contractName": "FarmerRole",
  "abi": [
    {
      "inputs": [],
      "stateMutability": "nonpayable",
      "type": "constructor"
    },
    {
      "anonymous": false,
      "inputs": [
        {
          "indexed": true,
          "internalType": "address",
          "name": "account",
          "type": "address"
        }
      ],
      "name": "FarmerAdded",
      "type": "event"
    },
    {
      "anonymous": false,
      "inputs": [
        {
          "indexed": true,
          "internalType": "address",
          "name": "account",
          "type": "address"
        }
      ],
      "name": "FarmerRemoved",
      "type": "event"
    },
    {
      "anonymous": false,
      "inputs": [
        {
          "indexed": true,
          "internalType": "address",
          "name": "oldOwner",
          "type": "address"
        },
        {
          "indexed": true,
          "internalType": "address",
          "name": "newOwner",
          "type": "address"
        }
      ],
      "name": "TransferOwnership",
      "type": "event"
    },
    {
      "inputs": [],
      "name": "isOwner",
      "outputs": [
        {
          "internalType": "bool",
          "name": "",
          "type": "bool"
        }
      ],
      "stateMutability": "view",
      "type": "function",
      "constant": true
    },
    {
      "inputs": [],
      "name": "owner",
      "outputs": [
        {
          "internalType": "address",
          "name": "",
          "type": "address"
        }
      ],
      "stateMutability": "view",
      "type": "function",
      "constant": true
    },
    {
      "inputs": [],
      "name": "renounceOwnership",
      "outputs": [],
      "stateMutability": "nonpayable",
      "type": "function"
    },
    {
      "inputs": [
        {
          "internalType": "address",
          "name": "newOwner",
          "type": "address"
        }
      ],
      "name": "transferOwnership",
      "outputs": [],
      "stateMutability": "nonpayable",
      "type": "function"
    },
    {
      "inputs": [
        {
          "internalType": "address",
          "name": "account",
          "type": "address"
        }
      ],
      "name": "isFarmer",
      "outputs": [
        {
          "internalType": "bool",
          "name": "",
          "type": "bool"
        }
      ],
      "stateMutability": "view",
      "type": "function",
      "constant": true
    },
    {
      "inputs": [
        {
          "internalType": "address",
          "name": "account",
          "type": "address"
        }
      ],
      "name": "addFarmer",
      "outputs": [],
      "stateMutability": "nonpayable",
      "type": "function"
    },
    {
      "inputs": [],
      "name": "renounceFarmer",
      "outputs": [],
      "stateMutability": "nonpayable",
      "type": "function"
    }
  ],
  "bytecode": "0x608060405234801561001057600080fd5b50336000806101000a81548173ffffffffffffffffffffffffffffffffffffffff021916908373ffffffffffffffffffffffffffffffffffffffff16021790555060008054906101000a900473ffffffffffffffffffffffffffffffffffffffff1673ffffffffffffffffffffffffffffffffffffffff16600073ffffffffffffffffffffffffffffffffffffffff167f5c486528ec3e3f0ea91181cff8116f02bfa350e03b8b6f12e00765adbb5af85c60405160405180910390a36100db336100e060201b60201c565b610280565b6100f881600161013e60201b6102ec1790919060201c565b8073ffffffffffffffffffffffffffffffffffffffff167f2e0ded4123377a3c2bc9a26f1717655a129e2f20752924d42e730ec89c83dbd060405160405180910390a250565b600073ffffffffffffffffffffffffffffffffffffffff168173ffffffffffffffffffffffffffffffffffffffff160361017757600080fd5b61018782826101ef60201b60201c565b1561019157600080fd5b60018260000160008373ffffffffffffffffffffffffffffffffffffffff1673ffffffffffffffffffffffffffffffffffffffff16815260200190815260200160002060006101000a81548160ff0219169083151502179055505050565b60008073ffffffffffffffffffffffffffffffffffffffff168273ffffffffffffffffffffffffffffffffffffffff160361022957600080fd5b8260000160008373ffffffffffffffffffffffffffffffffffffffff1673ffffffffffffffffffffffffffffffffffffffff16815260200190815260200160002060009054906101000a900460ff16905092915050565b6107a28061028f6000396000f3fe608060405234801561001057600080fd5b506004361061007d5760003560e01c80638da5cb5b1161005b5780638da5cb5b146100b25780638f32d59b146100d0578063b9429069146100ee578063f2fde38b1461011e5761007d565b8063715018a61461008257806380c3f96d1461008c57806380fc0ce4146100a8575b600080fd5b61008a61013a565b005b6100a660048036038101906100a191906106df565b610209565b005b6100b0610227565b005b6100ba610232565b6040516100c7919061071b565b60405180910390f35b6100d861025b565b6040516100e59190610751565b60405180910390f35b610108600480360381019061010391906106df565b6102b2565b6040516101159190610751565b60405180910390f35b610138600480360381019061013391906106df565b6102cf565b005b61014261025b565b61014b57600080fd5b600073ffffffffffffffffffffffffffffffffffffffff1660008054906101000a900473ffffffffffffffffffffffffffffffffffffffff1673ffffffffffffffffffffffffffffffffffffffff167f5c486528ec3e3f0ea91181cff8116f02bfa350e03b8b6f12e00765adbb5af85c60405160405180910390a360008060006101000a81548173ffffffffffffffffffffffffffffffffffffffff021916908373ffffffffffffffffffffffffffffffffffffffff160217905550565b610212336102b2565b61021b57600080fd5b61022481610397565b50565b610230336103f1565b565b60008060009054906101000a900473ffffffffffffffffffffffffffffffffffffffff16905090565b60008060009054906101000a900473ffffffffffffffffffffffffffffffffffffffff1673ffffffffffffffffffffffffffffffffffffffff163373ffffffffffffffffffffffffffffffffffffffff1614905090565b60006102c882600161044b90919063ffffffff16565b9050919050565b6102d761025b565b6102e057600080fd5b6102e9816104dc565b50565b600073ffffffffffffffffffffffffffffffffffffffff168173ffffffffffffffffffffffffffffffffffffffff160361032557600080fd5b61032f828261044b565b1561033957600080fd5b60018260000160008373ffffffffffffffffffffffffffffffffffffffff1673ffffffffffffffffffffffffffffffffffffffff16815260200190815260200160002060006101000a81548160ff0219169083151502179055505050565b6103ab8160016102ec90919063ffffffff16565b8073ffffffffffffffffffffffffffffffffffffffff167f2e0ded4123377a3c2bc9a26f1717655a129e2f20752924d42e730ec89c83dbd060405160405180910390a250565b6104058160016105d290919063ffffffff16565b8073ffffffffffffffffffffffffffffffffffffffff167fa5e0f060af304ab17dd418c7927e3da3ae7868189bf387aee09ab179ccc572f260405160405180910390a250565b60008073ffffffffffffffffffffffffffffffffffffffff168273ffffffffffffffffffffffffffffffffffffffff160361048557600080fd5b8260000160008373ffffffffffffffffffffffffffffffffffffffff1673ffffffffffffffffffffffffffffffffffffffff16815260200190815260200160002060009054906101000a900460ff16905092915050565b600073ffffffffffffffffffffffffffffffffffffffff168173ffffffffffffffffffffffffffffffffffffffff160361051557600080fd5b8073ffffffffffffffffffffffffffffffffffffffff1660008054906101000a900473ffffffffffffffffffffffffffffffffffffffff1673ffffffffffffffffffffffffffffffffffffffff167f5c486528ec3e3f0ea91181cff8116f02bfa350e03b8b6f12e00765adbb5af85c60405160405180910390a3806000806101000a81548173ffffffffffffffffffffffffffffffffffffffff021916908373ffffffffffffffffffffffffffffffffffffffff16021790555050565b600073ffffffffffffffffffffffffffffffffffffffff168173ffffffffffffffffffffffffffffffffffffffff160361060b57600080fd5b610615828261044b565b61061e57600080fd5b60008260000160008373ffffffffffffffffffffffffffffffffffffffff1673ffffffffffffffffffffffffffffffffffffffff16815260200190815260200160002060006101000a81548160ff0219169083151502179055505050565b600080fd5b600073ffffffffffffffffffffffffffffffffffffffff82169050919050565b60006106ac82610681565b9050919050565b6106bc816106a1565b81146106c757600080fd5b50565b6000813590506106d9816106b3565b92915050565b6000602082840312156106f5576106f461067c565b5b6000610703848285016106ca565b91505092915050565b610715816106a1565b82525050565b6000602082019050610730600083018461070c565b92915050565b60008115159050919050565b61074b81610736565b82525050565b60006020820190506107666000830184610742565b9291505056fea26469706673582212206dbf2b7ed3c89e73584729457a6480747ed7a6f1100f8d1061c83e58aaef8ff864736f6c63430008110033",
  "immutableReferences": {},
  "source": "// SPDX-License-Identifier: MIT\r\npragma solidity ^0.8.17;\r\n\r\n// Import the library 'Roles'\r\nimport \"./Roles.sol\";\r\nimport \"../sugarcore/Ownable.sol\";\r\n\r\n// Define a contract 'FarmerRole' to manage this role - add, remove, check\r\ncontract FarmerRole is Ownable {\r\n  using Roles for Roles.Role;\r\n\r\n  // Define 2 events, one for Adding, and other for Removing\r\n  event FarmerAdded(address indexed account);\r\n  event FarmerRemoved(address indexed account);\r\n\r\n  // Define a struct 'farmers' by inheriting from 'Roles' library, struct Role\r\n  Roles.Role private farmers;\r\n\r\n  // In the constructor make the address that deploys this contract the 1st farmer\r\n  constructor() {\r\n    _addFarmer(msg.sender);\r\n  }\r\n\r\n  // Define a modifier that checks to see if msg.sender has the appropriate role\r\n  modifier onlyFarmer() {\r\n    require(isFarmer(msg.sender));\r\n    _;\r\n  }\r\n\r\n  // Define a function 'isFarmer' to check this role\r\n  function isFarmer(address account) public view returns (bool) {\r\n    return farmers.has(account);\r\n  }\r\n\r\n  // Define a function 'addFarmer' that adds this role\r\n  function addFarmer(address account) public onlyFarmer {\r\n    _addFarmer(account);\r\n  }\r\n\r\n  // Define a function 'renounceFarmer' to renounce this role\r\n  function renounceFarmer() public {\r\n    _removeFarmer(msg.sender);\r\n  }\r\n\r\n  // Define an internal function '_addFarmer' to add this role, called by 'addFarmer'\r\n  function _addFarmer(address account) internal {\r\n    farmers.add(account);\r\n    emit FarmerAdded(account);\r\n  }\r\n\r\n  // Define an internal function '_removeFarmer' to remove this role, called by 'removeFarmer'\r\n  function _removeFarmer(address account) internal {\r\n    farmers.remove(account);\r\n    emit FarmerRemoved(account);\r\n  }\r\n}",
  "sourcePath": "C:\\Users\\Edward\\Desktop\\Project 3\\nd1309-Project-6b-Example-Template\\project-6\\contracts\\sugaraccesscontrol\\FarmerRole.sol",
  "compiler": {
    "name": "solc",
    "version": "0.8.17+commit.8df45f5f.Emscripten.clang"
  },
  "schemaVersion": "3.4.11",
  "updatedAt": "2022-12-18T17:11:03.326Z",
  "networkType": "ethereum",
  "devdoc": {
    "kind": "dev",
    "methods": {},
    "version": 1
  },
  "userdoc": {
    "kind": "user",
    "methods": {
      "isOwner()": {
        "notice": "Check if the calling address is the owner of the contract"
      },
      "owner()": {
        "notice": "Look up the address of the owner"
      },
      "renounceOwnership()": {
        "notice": "Define a function to renounce ownerhip"
      },
      "transferOwnership(address)": {
        "notice": "Define a public function to transfer ownership"
      }
    },
    "version": 1
  }
}