{
  "contractName": "RefineryRole",
  "abi": [
    {
      "inputs": [],
      "stateMutability": "nonpayable",
      "type": "constructor"
    },
    {
      "anonymous": false,
      "inputs": [
        {
          "indexed": true,
          "internalType": "address",
          "name": "account",
          "type": "address"
        }
      ],
      "name": "RefineryAdded",
      "type": "event"
    },
    {
      "anonymous": false,
      "inputs": [
        {
          "indexed": true,
          "internalType": "address",
          "name": "account",
          "type": "address"
        }
      ],
      "name": "RefineryRemoved",
      "type": "event"
    },
    {
      "anonymous": false,
      "inputs": [
        {
          "indexed": true,
          "internalType": "address",
          "name": "oldOwner",
          "type": "address"
        },
        {
          "indexed": true,
          "internalType": "address",
          "name": "newOwner",
          "type": "address"
        }
      ],
      "name": "TransferOwnership",
      "type": "event"
    },
    {
      "inputs": [],
      "name": "isOwner",
      "outputs": [
        {
          "internalType": "bool",
          "name": "",
          "type": "bool"
        }
      ],
      "stateMutability": "view",
      "type": "function",
      "constant": true
    },
    {
      "inputs": [],
      "name": "owner",
      "outputs": [
        {
          "internalType": "address",
          "name": "",
          "type": "address"
        }
      ],
      "stateMutability": "view",
      "type": "function",
      "constant": true
    },
    {
      "inputs": [],
      "name": "renounceOwnership",
      "outputs": [],
      "stateMutability": "nonpayable",
      "type": "function"
    },
    {
      "inputs": [
        {
          "internalType": "address",
          "name": "newOwner",
          "type": "address"
        }
      ],
      "name": "transferOwnership",
      "outputs": [],
      "stateMutability": "nonpayable",
      "type": "function"
    },
    {
      "inputs": [
        {
          "internalType": "address",
          "name": "account",
          "type": "address"
        }
      ],
      "name": "isRefinery",
      "outputs": [
        {
          "internalType": "bool",
          "name": "",
          "type": "bool"
        }
      ],
      "stateMutability": "view",
      "type": "function",
      "constant": true
    },
    {
      "inputs": [
        {
          "internalType": "address",
          "name": "account",
          "type": "address"
        }
      ],
      "name": "addRefinery",
      "outputs": [],
      "stateMutability": "nonpayable",
      "type": "function"
    },
    {
      "inputs": [],
      "name": "renounceRefinery",
      "outputs": [],
      "stateMutability": "nonpayable",
      "type": "function"
    }
  ],
  "bytecode": "0x608060405234801561001057600080fd5b50336000806101000a81548173ffffffffffffffffffffffffffffffffffffffff021916908373ffffffffffffffffffffffffffffffffffffffff16021790555060008054906101000a900473ffffffffffffffffffffffffffffffffffffffff1673ffffffffffffffffffffffffffffffffffffffff16600073ffffffffffffffffffffffffffffffffffffffff167f5c486528ec3e3f0ea91181cff8116f02bfa350e03b8b6f12e00765adbb5af85c60405160405180910390a36100db336100e060201b60201c565b610280565b6100f881600161013e60201b6102ec1790919060201c565b8073ffffffffffffffffffffffffffffffffffffffff167f912675bcb8b350e8a7accd0133bb60792bbbb6037456d81c4bee48f51a8dd4ea60405160405180910390a250565b600073ffffffffffffffffffffffffffffffffffffffff168173ffffffffffffffffffffffffffffffffffffffff160361017757600080fd5b61018782826101ef60201b60201c565b1561019157600080fd5b60018260000160008373ffffffffffffffffffffffffffffffffffffffff1673ffffffffffffffffffffffffffffffffffffffff16815260200190815260200160002060006101000a81548160ff0219169083151502179055505050565b60008073ffffffffffffffffffffffffffffffffffffffff168273ffffffffffffffffffffffffffffffffffffffff160361022957600080fd5b8260000160008373ffffffffffffffffffffffffffffffffffffffff1673ffffffffffffffffffffffffffffffffffffffff16815260200190815260200160002060009054906101000a900460ff16905092915050565b6107a28061028f6000396000f3fe608060405234801561001057600080fd5b506004361061007d5760003560e01c8063b6de87831161005b578063b6de8783146100c8578063c2c77c66146100f8578063f2fde38b14610114578063fdfd9cf8146101305761007d565b8063715018a6146100825780638da5cb5b1461008c5780638f32d59b146100aa575b600080fd5b61008a61013a565b005b610094610209565b6040516100a191906106bd565b60405180910390f35b6100b2610232565b6040516100bf91906106f3565b60405180910390f35b6100e260048036038101906100dd919061073f565b610289565b6040516100ef91906106f3565b60405180910390f35b610112600480360381019061010d919061073f565b6102a6565b005b61012e6004803603810190610129919061073f565b6102c4565b005b6101386102e1565b005b610142610232565b61014b57600080fd5b600073ffffffffffffffffffffffffffffffffffffffff1660008054906101000a900473ffffffffffffffffffffffffffffffffffffffff1673ffffffffffffffffffffffffffffffffffffffff167f5c486528ec3e3f0ea91181cff8116f02bfa350e03b8b6f12e00765adbb5af85c60405160405180910390a360008060006101000a81548173ffffffffffffffffffffffffffffffffffffffff021916908373ffffffffffffffffffffffffffffffffffffffff160217905550565b60008060009054906101000a900473ffffffffffffffffffffffffffffffffffffffff16905090565b60008060009054906101000a900473ffffffffffffffffffffffffffffffffffffffff1673ffffffffffffffffffffffffffffffffffffffff163373ffffffffffffffffffffffffffffffffffffffff1614905090565b600061029f82600161039790919063ffffffff16565b9050919050565b6102af33610289565b6102b857600080fd5b6102c181610428565b50565b6102cc610232565b6102d557600080fd5b6102de81610482565b50565b6102ea33610578565b565b600073ffffffffffffffffffffffffffffffffffffffff168173ffffffffffffffffffffffffffffffffffffffff160361032557600080fd5b61032f8282610397565b1561033957600080fd5b60018260000160008373ffffffffffffffffffffffffffffffffffffffff1673ffffffffffffffffffffffffffffffffffffffff16815260200190815260200160002060006101000a81548160ff0219169083151502179055505050565b60008073ffffffffffffffffffffffffffffffffffffffff168273ffffffffffffffffffffffffffffffffffffffff16036103d157600080fd5b8260000160008373ffffffffffffffffffffffffffffffffffffffff1673ffffffffffffffffffffffffffffffffffffffff16815260200190815260200160002060009054906101000a900460ff16905092915050565b61043c8160016102ec90919063ffffffff16565b8073ffffffffffffffffffffffffffffffffffffffff167f912675bcb8b350e8a7accd0133bb60792bbbb6037456d81c4bee48f51a8dd4ea60405160405180910390a250565b600073ffffffffffffffffffffffffffffffffffffffff168173ffffffffffffffffffffffffffffffffffffffff16036104bb57600080fd5b8073ffffffffffffffffffffffffffffffffffffffff1660008054906101000a900473ffffffffffffffffffffffffffffffffffffffff1673ffffffffffffffffffffffffffffffffffffffff167f5c486528ec3e3f0ea91181cff8116f02bfa350e03b8b6f12e00765adbb5af85c60405160405180910390a3806000806101000a81548173ffffffffffffffffffffffffffffffffffffffff021916908373ffffffffffffffffffffffffffffffffffffffff16021790555050565b61058c8160016105d290919063ffffffff16565b8073ffffffffffffffffffffffffffffffffffffffff167f1db9187dd9b9a8bde1a6ad48706a3157bf764616a23f07a2d55ad37fb68fe36c60405160405180910390a250565b600073ffffffffffffffffffffffffffffffffffffffff168173ffffffffffffffffffffffffffffffffffffffff160361060b57600080fd5b6106158282610397565b61061e57600080fd5b60008260000160008373ffffffffffffffffffffffffffffffffffffffff1673ffffffffffffffffffffffffffffffffffffffff16815260200190815260200160002060006101000a81548160ff0219169083151502179055505050565b600073ffffffffffffffffffffffffffffffffffffffff82169050919050565b60006106a78261067c565b9050919050565b6106b78161069c565b82525050565b60006020820190506106d260008301846106ae565b92915050565b60008115159050919050565b6106ed816106d8565b82525050565b600060208201905061070860008301846106e4565b92915050565b600080fd5b61071c8161069c565b811461072757600080fd5b50565b60008135905061073981610713565b92915050565b6000602082840312156107555761075461070e565b5b60006107638482850161072a565b9150509291505056fea26469706673582212200c1e77c1a1dee37d6926ab65ef98fc04e7eeab426ccb84447473cf91d6ad53d964736f6c63430008110033",
  "immutableReferences": {},
  "source": "// SPDX-License-Identifier: MIT\r\npragma solidity ^0.8.17;\r\n\r\n// Import the library 'Roles'\r\nimport \"./Roles.sol\";\r\nimport \"../sugarcore/Ownable.sol\";\r\n\r\n// Define a contract 'RefineryRole' to manage this role - add, remove, check\r\ncontract RefineryRole is Ownable {\r\n  using Roles for Roles.Role;\r\n\r\n  // Define 2 events, one for Adding, and other for Removing\r\n  event RefineryAdded(address indexed account);\r\n  event RefineryRemoved(address indexed account);\r\n\r\n  // Define a struct 'refineries' by inheriting from 'Roles' library, struct Role\r\n  Roles.Role private refineries;\r\n\r\n  // In the constructor make the address that deploys this contract the 1st refinery\r\n  constructor() {\r\n    _addRefinery(msg.sender);\r\n  }\r\n\r\n  // Define a modifier that checks to see if msg.sender has the appropriate role\r\n  modifier onlyRefinery() {\r\n    require(isRefinery(msg.sender));\r\n    _;\r\n  }\r\n\r\n  // Define a function 'isRefinery' to check this role\r\n  function isRefinery(address account) public view returns (bool) {\r\n    return refineries.has(account);\r\n  }\r\n\r\n  // Define a function 'addRefinery' that adds this role\r\n  function addRefinery(address account) public onlyRefinery {\r\n    _addRefinery(account);\r\n  }\r\n\r\n  // Define a function 'renounceRefinery' to renounce this role\r\n  function renounceRefinery() public {\r\n    _removeRefinery(msg.sender);\r\n  }\r\n\r\n  // Define an internal function '_addRefinery' to add this role, called by 'addRefinery'\r\n  function _addRefinery(address account) internal {\r\n    refineries.add(account);\r\n    emit RefineryAdded(account);(account);\r\n  }\r\n\r\n  // Define an internal function '_removeRefinery' to remove this role, called by 'removeRefinery'\r\n  function _removeRefinery(address account) internal {\r\n    refineries.remove(account);\r\n    emit RefineryRemoved(account);(account);\r\n  }\r\n}",
  "sourcePath": "C:\\Users\\Edward\\Desktop\\Project 3\\nd1309-Project-6b-Example-Template\\project-6\\contracts\\sugaraccesscontrol\\RefineryRole.sol",
  "compiler": {
    "name": "solc",
    "version": "0.8.17+commit.8df45f5f.Emscripten.clang"
  },
  "schemaVersion": "3.4.11",
  "updatedAt": "2022-12-19T15:04:20.396Z",
  "networkType": "ethereum",
  "devdoc": {
    "kind": "dev",
    "methods": {},
    "version": 1
  },
  "userdoc": {
    "kind": "user",
    "methods": {
      "isOwner()": {
        "notice": "Check if the calling address is the owner of the contract"
      },
      "owner()": {
        "notice": "Look up the address of the owner"
      },
      "renounceOwnership()": {
        "notice": "Define a function to renounce ownerhip"
      },
      "transferOwnership(address)": {
        "notice": "Define a public function to transfer ownership"
      }
    },
    "version": 1
  }
}