{
  "contractName": "SupplyChain",
  "abi": [
    {
      "inputs": [
        {
          "internalType": "address",
          "name": "farmerRole",
          "type": "address"
        },
        {
          "internalType": "address",
          "name": "distributorRole",
          "type": "address"
        },
        {
          "internalType": "address",
          "name": "retailerRole",
          "type": "address"
        },
        {
          "internalType": "address",
          "name": "consumerRole",
          "type": "address"
        }
      ],
      "stateMutability": "payable",
      "type": "constructor"
    },
    {
      "anonymous": false,
      "inputs": [
        {
          "indexed": true,
          "internalType": "uint256",
          "name": "upc",
          "type": "uint256"
        }
      ],
      "name": "ForSale",
      "type": "event"
    },
    {
      "anonymous": false,
      "inputs": [
        {
          "indexed": true,
          "internalType": "uint256",
          "name": "upc",
          "type": "uint256"
        }
      ],
      "name": "Harvested",
      "type": "event"
    },
    {
      "anonymous": false,
      "inputs": [
        {
          "indexed": true,
          "internalType": "uint256",
          "name": "upc",
          "type": "uint256"
        }
      ],
      "name": "Packed",
      "type": "event"
    },
    {
      "anonymous": false,
      "inputs": [
        {
          "indexed": true,
          "internalType": "uint256",
          "name": "upc",
          "type": "uint256"
        }
      ],
      "name": "Processed",
      "type": "event"
    },
    {
      "anonymous": false,
      "inputs": [
        {
          "indexed": true,
          "internalType": "uint256",
          "name": "upc",
          "type": "uint256"
        }
      ],
      "name": "Purchased",
      "type": "event"
    },
    {
      "anonymous": false,
      "inputs": [
        {
          "indexed": true,
          "internalType": "uint256",
          "name": "upc",
          "type": "uint256"
        }
      ],
      "name": "Received",
      "type": "event"
    },
    {
      "anonymous": false,
      "inputs": [
        {
          "indexed": true,
          "internalType": "uint256",
          "name": "upc",
          "type": "uint256"
        }
      ],
      "name": "Shipped",
      "type": "event"
    },
    {
      "anonymous": false,
      "inputs": [
        {
          "indexed": true,
          "internalType": "uint256",
          "name": "upc",
          "type": "uint256"
        }
      ],
      "name": "Sold",
      "type": "event"
    },
    {
      "anonymous": false,
      "inputs": [
        {
          "indexed": true,
          "internalType": "address",
          "name": "oldOwner",
          "type": "address"
        },
        {
          "indexed": true,
          "internalType": "address",
          "name": "newOwner",
          "type": "address"
        }
      ],
      "name": "TransferOwnership",
      "type": "event"
    },
    {
      "inputs": [],
      "name": "isOwner",
      "outputs": [
        {
          "internalType": "bool",
          "name": "",
          "type": "bool"
        }
      ],
      "stateMutability": "view",
      "type": "function"
    },
    {
      "inputs": [],
      "name": "owner",
      "outputs": [
        {
          "internalType": "address",
          "name": "",
          "type": "address"
        }
      ],
      "stateMutability": "view",
      "type": "function"
    },
    {
      "inputs": [],
      "name": "renounceOwnership",
      "outputs": [],
      "stateMutability": "nonpayable",
      "type": "function"
    },
    {
      "inputs": [
        {
          "internalType": "address",
          "name": "newOwner",
          "type": "address"
        }
      ],
      "name": "transferOwnership",
      "outputs": [],
      "stateMutability": "nonpayable",
      "type": "function"
    },
    {
      "inputs": [],
      "name": "kill",
      "outputs": [],
      "stateMutability": "nonpayable",
      "type": "function"
    },
    {
      "inputs": [
        {
          "internalType": "uint256",
          "name": "_upc",
          "type": "uint256"
        },
        {
          "internalType": "address",
          "name": "_originFarmerID",
          "type": "address"
        },
        {
          "internalType": "string",
          "name": "_originFarmName",
          "type": "string"
        },
        {
          "internalType": "string",
          "name": "_originFarmInformation",
          "type": "string"
        },
        {
          "internalType": "string",
          "name": "_originFarmLatitude",
          "type": "string"
        },
        {
          "internalType": "string",
          "name": "_originFarmLongitude",
          "type": "string"
        },
        {
          "internalType": "string",
          "name": "_productNotes",
          "type": "string"
        }
      ],
      "name": "harvestItem",
      "outputs": [],
      "stateMutability": "nonpayable",
      "type": "function"
    },
    {
      "inputs": [
        {
          "internalType": "uint256",
          "name": "_upc",
          "type": "uint256"
        }
      ],
      "name": "processItem",
      "outputs": [],
      "stateMutability": "nonpayable",
      "type": "function"
    },
    {
      "inputs": [
        {
          "internalType": "uint256",
          "name": "_upc",
          "type": "uint256"
        }
      ],
      "name": "packItem",
      "outputs": [],
      "stateMutability": "nonpayable",
      "type": "function"
    },
    {
      "inputs": [
        {
          "internalType": "uint256",
          "name": "_upc",
          "type": "uint256"
        },
        {
          "internalType": "uint256",
          "name": "_price",
          "type": "uint256"
        }
      ],
      "name": "sellItem",
      "outputs": [],
      "stateMutability": "nonpayable",
      "type": "function"
    },
    {
      "inputs": [
        {
          "internalType": "uint256",
          "name": "_upc",
          "type": "uint256"
        }
      ],
      "name": "buyItem",
      "outputs": [],
      "stateMutability": "payable",
      "type": "function"
    },
    {
      "inputs": [
        {
          "internalType": "uint256",
          "name": "_upc",
          "type": "uint256"
        }
      ],
      "name": "shipItem",
      "outputs": [],
      "stateMutability": "nonpayable",
      "type": "function"
    },
    {
      "inputs": [
        {
          "internalType": "uint256",
          "name": "_upc",
          "type": "uint256"
        }
      ],
      "name": "receiveItem",
      "outputs": [],
      "stateMutability": "nonpayable",
      "type": "function"
    },
    {
      "inputs": [
        {
          "internalType": "uint256",
          "name": "_upc",
          "type": "uint256"
        }
      ],
      "name": "purchaseItem",
      "outputs": [],
      "stateMutability": "nonpayable",
      "type": "function"
    },
    {
      "inputs": [
        {
          "internalType": "uint256",
          "name": "_upc",
          "type": "uint256"
        }
      ],
      "name": "fetchItemBufferOne",
      "outputs": [
        {
          "internalType": "uint256",
          "name": "itemSKU",
          "type": "uint256"
        },
        {
          "internalType": "uint256",
          "name": "itemUPC",
          "type": "uint256"
        },
        {
          "internalType": "address",
          "name": "ownerID",
          "type": "address"
        },
        {
          "internalType": "address",
          "name": "originFarmerID",
          "type": "address"
        },
        {
          "internalType": "string",
          "name": "originFarmName",
          "type": "string"
        },
        {
          "internalType": "string",
          "name": "originFarmInformation",
          "type": "string"
        },
        {
          "internalType": "string",
          "name": "originFarmLatitude",
          "type": "string"
        },
        {
          "internalType": "string",
          "name": "originFarmLongitude",
          "type": "string"
        }
      ],
      "stateMutability": "view",
      "type": "function"
    },
    {
      "inputs": [
        {
          "internalType": "uint256",
          "name": "_upc",
          "type": "uint256"
        }
      ],
      "name": "fetchItemBufferTwo",
      "outputs": [
        {
          "internalType": "uint256",
          "name": "itemSKU",
          "type": "uint256"
        },
        {
          "internalType": "uint256",
          "name": "itemUPC",
          "type": "uint256"
        },
        {
          "internalType": "uint256",
          "name": "productID",
          "type": "uint256"
        },
        {
          "internalType": "string",
          "name": "productNotes",
          "type": "string"
        },
        {
          "internalType": "uint256",
          "name": "productPrice",
          "type": "uint256"
        },
        {
          "internalType": "uint256",
          "name": "itemState",
          "type": "uint256"
        },
        {
          "internalType": "address",
          "name": "distributorID",
          "type": "address"
        },
        {
          "internalType": "address",
          "name": "retailerID",
          "type": "address"
        },
        {
          "internalType": "address",
          "name": "consumerID",
          "type": "address"
        }
      ],
      "stateMutability": "view",
      "type": "function"
    }
  ],
  "bytecode": "0x608060405260405162002bb238038062002bb2833981810160405281019062000029919062000263565b336000806101000a81548173ffffffffffffffffffffffffffffffffffffffff021916908373ffffffffffffffffffffffffffffffffffffffff16021790555060008054906101000a900473ffffffffffffffffffffffffffffffffffffffff1673ffffffffffffffffffffffffffffffffffffffff16600073ffffffffffffffffffffffffffffffffffffffff167f5c486528ec3e3f0ea91181cff8116f02bfa350e03b8b6f12e00765adbb5af85c60405160405180910390a36001808190555083600260006101000a81548173ffffffffffffffffffffffffffffffffffffffff021916908373ffffffffffffffffffffffffffffffffffffffff16021790555082600360006101000a81548173ffffffffffffffffffffffffffffffffffffffff021916908373ffffffffffffffffffffffffffffffffffffffff16021790555081600460006101000a81548173ffffffffffffffffffffffffffffffffffffffff021916908373ffffffffffffffffffffffffffffffffffffffff16021790555080600560006101000a81548173ffffffffffffffffffffffffffffffffffffffff021916908373ffffffffffffffffffffffffffffffffffffffff16021790555050505050620002d5565b600080fd5b600073ffffffffffffffffffffffffffffffffffffffff82169050919050565b60006200022b82620001fe565b9050919050565b6200023d816200021e565b81146200024957600080fd5b50565b6000815190506200025d8162000232565b92915050565b6000806000806080858703121562000280576200027f620001f9565b5b600062000290878288016200024c565b9450506020620002a3878288016200024c565b9350506040620002b6878288016200024c565b9250506060620002c9878288016200024c565b91505092959194509250565b6128cd80620002e56000396000f3fe6080604052600436106100e85760003560e01c80638f32d59b1161008a578063e7fb74c711610059578063e7fb74c7146102c7578063f2fde38b146102e3578063f30fc4801461030c578063f61c899a14610335576100e8565b80638f32d59b14610221578063a26be9991461024c578063bdd8a6a814610275578063d38ea5bf1461029e576100e8565b806366225ff9116100c657806366225ff914610156578063715018a61461019b57806377c45913146101b25780638da5cb5b146101f6576100e8565b80632d923561146100ed57806341c0e1b51461011657806349dae7661461012d575b600080fd5b3480156100f957600080fd5b50610114600480360381019061010f9190611f12565b61035e565b005b34801561012257600080fd5b5061012b610554565b005b34801561013957600080fd5b50610154600480360381019061014f9190611f52565b6105b0565b005b34801561016257600080fd5b5061017d60048036038101906101789190611f52565b61078a565b6040516101929998979695949392919061205f565b60405180910390f35b3480156101a757600080fd5b506101b061098e565b005b3480156101be57600080fd5b506101d960048036038101906101d49190611f52565b610a5d565b6040516101ed9897969594939291906120f3565b60405180910390f35b34801561020257600080fd5b5061020b610d9c565b604051610218919061218d565b60405180910390f35b34801561022d57600080fd5b50610236610dc5565b60405161024391906121c3565b60405180910390f35b34801561025857600080fd5b50610273600480360381019061026e9190611f52565b610e1c565b005b34801561028157600080fd5b5061029c6004803603810190610297919061233f565b61102f565b005b3480156102aa57600080fd5b506102c560048036038101906102c09190611f52565b61148b565b005b6102e160048036038101906102dc9190611f52565b61169f565b005b3480156102ef57600080fd5b5061030a6004803603810190610305919061246d565b611a01565b005b34801561031857600080fd5b50610333600480360381019061032e9190611f52565b611a1e565b005b34801561034157600080fd5b5061035c60048036038101906103579190611f52565b611bf8565b005b81600260078111156103735761037261249a565b5b60066000838152602001908152602001600020600b0160009054906101000a900460ff1660078111156103a9576103a861249a565b5b146103b357600080fd5b6006600084815260200190815260200160002060020160009054906101000a900473ffffffffffffffffffffffffffffffffffffffff168073ffffffffffffffffffffffffffffffffffffffff163373ffffffffffffffffffffffffffffffffffffffff161461042257600080fd5b600260009054906101000a900473ffffffffffffffffffffffffffffffffffffffff1673ffffffffffffffffffffffffffffffffffffffff1663b9429069336040518263ffffffff1660e01b815260040161047d919061218d565b602060405180830381865afa15801561049a573d6000803e3d6000fd5b505050506040513d601f19601f820116820180604052508101906104be91906124f5565b6104c757600080fd5b600360066000868152602001908152602001600020600b0160006101000a81548160ff021916908360078111156105015761050061249a565b5b02179055508260066000868152602001908152602001600020600a0181905550837fa96ae0fc3224ebd79eebfe54bd130cc9cb94416cddd1f2386115e00b7253246860405160405180910390a250505050565b61055c610d9c565b73ffffffffffffffffffffffffffffffffffffffff163373ffffffffffffffffffffffffffffffffffffffff16036105ae57610596610d9c565b73ffffffffffffffffffffffffffffffffffffffff16ff5b565b80600060078111156105c5576105c461249a565b5b60066000838152602001908152602001600020600b0160009054906101000a900460ff1660078111156105fb576105fa61249a565b5b1461060557600080fd5b6006600083815260200190815260200160002060020160009054906101000a900473ffffffffffffffffffffffffffffffffffffffff168073ffffffffffffffffffffffffffffffffffffffff163373ffffffffffffffffffffffffffffffffffffffff161461067457600080fd5b600260009054906101000a900473ffffffffffffffffffffffffffffffffffffffff1673ffffffffffffffffffffffffffffffffffffffff1663b9429069336040518263ffffffff1660e01b81526004016106cf919061218d565b602060405180830381865afa1580156106ec573d6000803e3d6000fd5b505050506040513d601f19601f8201168201806040525081019061071091906124f5565b61071957600080fd5b600160066000858152602001908152602001600020600b0160006101000a81548160ff021916908360078111156107535761075261249a565b5b0217905550827f5afe3b1bf87069693c075da5c22a98d63d1aef98a30dbbe538d0781a98b77ee560405160405180910390a2505050565b600080600060606000806000806000600660008b8152602001908152602001600020600001549850600660008b8152602001908152602001600020600101549750600660008b8152602001908152602001600020600801549650600660008b8152602001908152602001600020600901805461080590612551565b80601f016020809104026020016040519081016040528092919081815260200182805461083190612551565b801561087e5780601f106108535761010080835404028352916020019161087e565b820191906000526020600020905b81548152906001019060200180831161086157829003601f168201915b50505050509550600660008b8152602001908152602001600020600a01549450600660008b8152602001908152602001600020600b0160009054906101000a900460ff1660078111156108d4576108d361249a565b5b9350600660008b8152602001908152602001600020600b0160019054906101000a900473ffffffffffffffffffffffffffffffffffffffff169250600660008b8152602001908152602001600020600c0160009054906101000a900473ffffffffffffffffffffffffffffffffffffffff169150600660008b8152602001908152602001600020600d0160009054906101000a900473ffffffffffffffffffffffffffffffffffffffff1690509193959799909294969850565b610996610dc5565b61099f57600080fd5b600073ffffffffffffffffffffffffffffffffffffffff1660008054906101000a900473ffffffffffffffffffffffffffffffffffffffff1673ffffffffffffffffffffffffffffffffffffffff167f5c486528ec3e3f0ea91181cff8116f02bfa350e03b8b6f12e00765adbb5af85c60405160405180910390a360008060006101000a81548173ffffffffffffffffffffffffffffffffffffffff021916908373ffffffffffffffffffffffffffffffffffffffff160217905550565b600080600080606080606080600660008a8152602001908152602001600020600001549750600660008a8152602001908152602001600020600101549650600660008a815260200190815260200160002060020160009054906101000a900473ffffffffffffffffffffffffffffffffffffffff169550600660008a815260200190815260200160002060030160009054906101000a900473ffffffffffffffffffffffffffffffffffffffff169450600660008a81526020019081526020016000206004018054610b2e90612551565b80601f0160208091040260200160405190810160405280929190818152602001828054610b5a90612551565b8015610ba75780601f10610b7c57610100808354040283529160200191610ba7565b820191906000526020600020905b815481529060010190602001808311610b8a57829003601f168201915b50505050509350600660008a81526020019081526020016000206005018054610bcf90612551565b80601f0160208091040260200160405190810160405280929190818152602001828054610bfb90612551565b8015610c485780601f10610c1d57610100808354040283529160200191610c48565b820191906000526020600020905b815481529060010190602001808311610c2b57829003601f168201915b50505050509250600660008a81526020019081526020016000206006018054610c7090612551565b80601f0160208091040260200160405190810160405280929190818152602001828054610c9c90612551565b8015610ce95780601f10610cbe57610100808354040283529160200191610ce9565b820191906000526020600020905b815481529060010190602001808311610ccc57829003601f168201915b50505050509150600660008a81526020019081526020016000206007018054610d1190612551565b80601f0160208091040260200160405190810160405280929190818152602001828054610d3d90612551565b8015610d8a5780601f10610d5f57610100808354040283529160200191610d8a565b820191906000526020600020905b815481529060010190602001808311610d6d57829003601f168201915b50505050509050919395975091939597565b60008060009054906101000a900473ffffffffffffffffffffffffffffffffffffffff16905090565b60008060009054906101000a900473ffffffffffffffffffffffffffffffffffffffff1673ffffffffffffffffffffffffffffffffffffffff163373ffffffffffffffffffffffffffffffffffffffff1614905090565b8060056007811115610e3157610e3061249a565b5b60066000838152602001908152602001600020600b0160009054906101000a900460ff166007811115610e6757610e6661249a565b5b14610e7157600080fd5b600460009054906101000a900473ffffffffffffffffffffffffffffffffffffffff1673ffffffffffffffffffffffffffffffffffffffff16635da09b88336040518263ffffffff1660e01b8152600401610ecc919061218d565b602060405180830381865afa158015610ee9573d6000803e3d6000fd5b505050506040513d601f19601f82011682018060405250810190610f0d91906124f5565b610f1657600080fd5b336006600084815260200190815260200160002060020160006101000a81548173ffffffffffffffffffffffffffffffffffffffff021916908373ffffffffffffffffffffffffffffffffffffffff1602179055503360066000848152602001908152602001600020600c0160006101000a81548173ffffffffffffffffffffffffffffffffffffffff021916908373ffffffffffffffffffffffffffffffffffffffff1602179055506006806000848152602001908152602001600020600b0160006101000a81548160ff02191690836007811115610ff957610ff861249a565b5b0217905550817fa8142743f8f70a4c26f3691cf4ed59718381fb2f18070ec52be1f1022d85555760405160405180910390a25050565b600260009054906101000a900473ffffffffffffffffffffffffffffffffffffffff1673ffffffffffffffffffffffffffffffffffffffff1663b9429069336040518263ffffffff1660e01b815260040161108a919061218d565b602060405180830381865afa1580156110a7573d6000803e3d6000fd5b505050506040513d601f19601f820116820180604052508101906110cb91906124f5565b6110d457600080fd5b858073ffffffffffffffffffffffffffffffffffffffff163373ffffffffffffffffffffffffffffffffffffffff161461110d57600080fd5b604051806101e0016040528060015481526020018981526020018873ffffffffffffffffffffffffffffffffffffffff1681526020018873ffffffffffffffffffffffffffffffffffffffff168152602001878152602001868152602001858152602001848152602001600154815260200183815260200160008152602001600060078111156111a05761119f61249a565b5b8152602001600073ffffffffffffffffffffffffffffffffffffffff168152602001600073ffffffffffffffffffffffffffffffffffffffff168152602001600073ffffffffffffffffffffffffffffffffffffffff16815250600660008a8152602001908152602001600020600082015181600001556020820151816001015560408201518160020160006101000a81548173ffffffffffffffffffffffffffffffffffffffff021916908373ffffffffffffffffffffffffffffffffffffffff16021790555060608201518160030160006101000a81548173ffffffffffffffffffffffffffffffffffffffff021916908373ffffffffffffffffffffffffffffffffffffffff16021790555060808201518160040190816112c4919061272e565b5060a08201518160050190816112da919061272e565b5060c08201518160060190816112f0919061272e565b5060e0820151816007019081611306919061272e565b506101008201518160080155610120820151816009019081611328919061272e565b5061014082015181600a015561016082015181600b0160006101000a81548160ff021916908360078111156113605761135f61249a565b5b021790555061018082015181600b0160016101000a81548173ffffffffffffffffffffffffffffffffffffffff021916908373ffffffffffffffffffffffffffffffffffffffff1602179055506101a082015181600c0160006101000a81548173ffffffffffffffffffffffffffffffffffffffff021916908373ffffffffffffffffffffffffffffffffffffffff1602179055506101c082015181600d0160006101000a81548173ffffffffffffffffffffffffffffffffffffffff021916908373ffffffffffffffffffffffffffffffffffffffff1602179055509050506001805461144e919061282f565b600181905550877f8e55ccfc9778ff8eba1646d765cf1982537ce0f9257054a17b48aad74525018360405160405180910390a25050505050505050565b80600660078111156114a05761149f61249a565b5b60066000838152602001908152602001600020600b0160009054906101000a900460ff1660078111156114d6576114d561249a565b5b146114e057600080fd5b600560009054906101000a900473ffffffffffffffffffffffffffffffffffffffff1673ffffffffffffffffffffffffffffffffffffffff1663834ff739336040518263ffffffff1660e01b815260040161153b919061218d565b602060405180830381865afa158015611558573d6000803e3d6000fd5b505050506040513d601f19601f8201168201806040525081019061157c91906124f5565b61158557600080fd5b336006600084815260200190815260200160002060020160006101000a81548173ffffffffffffffffffffffffffffffffffffffff021916908373ffffffffffffffffffffffffffffffffffffffff1602179055503360066000848152602001908152602001600020600d0160006101000a81548173ffffffffffffffffffffffffffffffffffffffff021916908373ffffffffffffffffffffffffffffffffffffffff160217905550600760066000848152602001908152602001600020600b0160006101000a81548160ff021916908360078111156116695761166861249a565b5b0217905550817f653d56639fee6b566a5c804764e9689de38645f0b733df89a36a1b7b42173dd860405160405180910390a25050565b80600360078111156116b4576116b361249a565b5b60066000838152602001908152602001600020600b0160009054906101000a900460ff1660078111156116ea576116e961249a565b5b146116f457600080fd5b600360009054906101000a900473ffffffffffffffffffffffffffffffffffffffff1673ffffffffffffffffffffffffffffffffffffffff16638f0c86fa336040518263ffffffff1660e01b815260040161174f919061218d565b602060405180830381865afa15801561176c573d6000803e3d6000fd5b505050506040513d601f19601f8201168201806040525081019061179091906124f5565b61179957600080fd5b81803410156117a757600080fd5b82336006600086815260200190815260200160002060020160006101000a81548173ffffffffffffffffffffffffffffffffffffffff021916908373ffffffffffffffffffffffffffffffffffffffff1602179055503360066000868152602001908152602001600020600b0160016101000a81548173ffffffffffffffffffffffffffffffffffffffff021916908373ffffffffffffffffffffffffffffffffffffffff160217905550600460066000868152602001908152602001600020600b0160006101000a81548160ff0219169083600781111561188c5761188b61249a565b5b02179055506006600085815260200190815260200160002060030160009054906101000a900473ffffffffffffffffffffffffffffffffffffffff1673ffffffffffffffffffffffffffffffffffffffff166108fc60066000878152602001908152602001600020600a01549081150290604051600060405180830381858888f19350505050158015611923573d6000803e3d6000fd5b50837f92f64ca637d023f354075a4be751b169c1a8a9ccb6d33cdd0cb352054399572760405160405180910390a2600060066000838152602001908152602001600020600a015490506000813461197a9190612863565b905060066000848152602001908152602001600020600d0160009054906101000a900473ffffffffffffffffffffffffffffffffffffffff1673ffffffffffffffffffffffffffffffffffffffff166108fc829081150290604051600060405180830381858888f193505050501580156119f8573d6000803e3d6000fd5b50505050505050565b611a09610dc5565b611a1257600080fd5b611a1b81611dd2565b50565b8060016007811115611a3357611a3261249a565b5b60066000838152602001908152602001600020600b0160009054906101000a900460ff166007811115611a6957611a6861249a565b5b14611a7357600080fd5b6006600083815260200190815260200160002060020160009054906101000a900473ffffffffffffffffffffffffffffffffffffffff168073ffffffffffffffffffffffffffffffffffffffff163373ffffffffffffffffffffffffffffffffffffffff1614611ae257600080fd5b600260009054906101000a900473ffffffffffffffffffffffffffffffffffffffff1673ffffffffffffffffffffffffffffffffffffffff1663b9429069336040518263ffffffff1660e01b8152600401611b3d919061218d565b602060405180830381865afa158015611b5a573d6000803e3d6000fd5b505050506040513d601f19601f82011682018060405250810190611b7e91906124f5565b611b8757600080fd5b600260066000858152602001908152602001600020600b0160006101000a81548160ff02191690836007811115611bc157611bc061249a565b5b0217905550827f9b3b66e2380b690bae22c73ef1428fb0c91e72fe14a4b6defa13035214187aff60405160405180910390a2505050565b8060046007811115611c0d57611c0c61249a565b5b60066000838152602001908152602001600020600b0160009054906101000a900460ff166007811115611c4357611c4261249a565b5b14611c4d57600080fd5b6006600083815260200190815260200160002060020160009054906101000a900473ffffffffffffffffffffffffffffffffffffffff168073ffffffffffffffffffffffffffffffffffffffff163373ffffffffffffffffffffffffffffffffffffffff1614611cbc57600080fd5b600360009054906101000a900473ffffffffffffffffffffffffffffffffffffffff1673ffffffffffffffffffffffffffffffffffffffff16638f0c86fa336040518263ffffffff1660e01b8152600401611d17919061218d565b602060405180830381865afa158015611d34573d6000803e3d6000fd5b505050506040513d601f19601f82011682018060405250810190611d5891906124f5565b611d6157600080fd5b600560066000858152602001908152602001600020600b0160006101000a81548160ff02191690836007811115611d9b57611d9a61249a565b5b0217905550827ff00b9a5725b80c54016f42114f6ed7792d22eecb116011c4afac29c57bef6c9560405160405180910390a2505050565b600073ffffffffffffffffffffffffffffffffffffffff168173ffffffffffffffffffffffffffffffffffffffff1603611e0b57600080fd5b8073ffffffffffffffffffffffffffffffffffffffff1660008054906101000a900473ffffffffffffffffffffffffffffffffffffffff1673ffffffffffffffffffffffffffffffffffffffff167f5c486528ec3e3f0ea91181cff8116f02bfa350e03b8b6f12e00765adbb5af85c60405160405180910390a3806000806101000a81548173ffffffffffffffffffffffffffffffffffffffff021916908373ffffffffffffffffffffffffffffffffffffffff16021790555050565b6000604051905090565b600080fd5b600080fd5b6000819050919050565b611eef81611edc565b8114611efa57600080fd5b50565b600081359050611f0c81611ee6565b92915050565b60008060408385031215611f2957611f28611ed2565b5b6000611f3785828601611efd565b9250506020611f4885828601611efd565b9150509250929050565b600060208284031215611f6857611f67611ed2565b5b6000611f7684828501611efd565b91505092915050565b611f8881611edc565b82525050565b600081519050919050565b600082825260208201905092915050565b60005b83811015611fc8578082015181840152602081019050611fad565b60008484015250505050565b6000601f19601f8301169050919050565b6000611ff082611f8e565b611ffa8185611f99565b935061200a818560208601611faa565b61201381611fd4565b840191505092915050565b600073ffffffffffffffffffffffffffffffffffffffff82169050919050565b60006120498261201e565b9050919050565b6120598161203e565b82525050565b600061012082019050612075600083018c611f7f565b612082602083018b611f7f565b61208f604083018a611f7f565b81810360608301526120a18189611fe5565b90506120b06080830188611f7f565b6120bd60a0830187611f7f565b6120ca60c0830186612050565b6120d760e0830185612050565b6120e5610100830184612050565b9a9950505050505050505050565b600061010082019050612109600083018b611f7f565b612116602083018a611f7f565b6121236040830189612050565b6121306060830188612050565b81810360808301526121428187611fe5565b905081810360a08301526121568186611fe5565b905081810360c083015261216a8185611fe5565b905081810360e083015261217e8184611fe5565b90509998505050505050505050565b60006020820190506121a26000830184612050565b92915050565b60008115159050919050565b6121bd816121a8565b82525050565b60006020820190506121d860008301846121b4565b92915050565b6121e78161203e565b81146121f257600080fd5b50565b600081359050612204816121de565b92915050565b600080fd5b600080fd5b7f4e487b7100000000000000000000000000000000000000000000000000000000600052604160045260246000fd5b61224c82611fd4565b810181811067ffffffffffffffff8211171561226b5761226a612214565b5b80604052505050565b600061227e611ec8565b905061228a8282612243565b919050565b600067ffffffffffffffff8211156122aa576122a9612214565b5b6122b382611fd4565b9050602081019050919050565b82818337600083830152505050565b60006122e26122dd8461228f565b612274565b9050828152602081018484840111156122fe576122fd61220f565b5b6123098482856122c0565b509392505050565b600082601f8301126123265761232561220a565b5b81356123368482602086016122cf565b91505092915050565b600080600080600080600060e0888a03121561235e5761235d611ed2565b5b600061236c8a828b01611efd565b975050602061237d8a828b016121f5565b965050604088013567ffffffffffffffff81111561239e5761239d611ed7565b5b6123aa8a828b01612311565b955050606088013567ffffffffffffffff8111156123cb576123ca611ed7565b5b6123d78a828b01612311565b945050608088013567ffffffffffffffff8111156123f8576123f7611ed7565b5b6124048a828b01612311565b93505060a088013567ffffffffffffffff81111561242557612424611ed7565b5b6124318a828b01612311565b92505060c088013567ffffffffffffffff81111561245257612451611ed7565b5b61245e8a828b01612311565b91505092959891949750929550565b60006020828403121561248357612482611ed2565b5b6000612491848285016121f5565b91505092915050565b7f4e487b7100000000000000000000000000000000000000000000000000000000600052602160045260246000fd5b6124d2816121a8565b81146124dd57600080fd5b50565b6000815190506124ef816124c9565b92915050565b60006020828403121561250b5761250a611ed2565b5b6000612519848285016124e0565b91505092915050565b7f4e487b7100000000000000000000000000000000000000000000000000000000600052602260045260246000fd5b6000600282049050600182168061256957607f821691505b60208210810361257c5761257b612522565b5b50919050565b60008190508160005260206000209050919050565b60006020601f8301049050919050565b600082821b905092915050565b6000600883026125e47fffffffffffffffffffffffffffffffffffffffffffffffffffffffffffffffff826125a7565b6125ee86836125a7565b95508019841693508086168417925050509392505050565b6000819050919050565b600061262b61262661262184611edc565b612606565b611edc565b9050919050565b6000819050919050565b61264583612610565b61265961265182612632565b8484546125b4565b825550505050565b600090565b61266e612661565b61267981848461263c565b505050565b5b8181101561269d57612692600082612666565b60018101905061267f565b5050565b601f8211156126e2576126b381612582565b6126bc84612597565b810160208510156126cb578190505b6126df6126d785612597565b83018261267e565b50505b505050565b600082821c905092915050565b6000612705600019846008026126e7565b1980831691505092915050565b600061271e83836126f4565b9150826002028217905092915050565b61273782611f8e565b67ffffffffffffffff8111156127505761274f612214565b5b61275a8254612551565b6127658282856126a1565b600060209050601f8311600181146127985760008415612786578287015190505b6127908582612712565b8655506127f8565b601f1984166127a686612582565b60005b828110156127ce578489015182556001820191506020850194506020810190506127a9565b868310156127eb57848901516127e7601f8916826126f4565b8355505b6001600288020188555050505b505050505050565b7f4e487b7100000000000000000000000000000000000000000000000000000000600052601160045260246000fd5b600061283a82611edc565b915061284583611edc565b925082820190508082111561285d5761285c612800565b5b92915050565b600061286e82611edc565b915061287983611edc565b925082820390508181111561289157612890612800565b5b9291505056fea26469706673582212203735900b198fb8189621e58d9b6356d2ff0bf7ef4b3f6d601ef0d3990929fead64736f6c63430008110033",
  "immutableReferences": {},
  "source": "// SPDX-License-Identifier: MIT\r\npragma solidity ^0.8.17;\r\n\r\nimport \"../coffeecore/Ownable.sol\";\r\nimport \"../coffeeaccesscontrol/FarmerRole.sol\";\r\nimport \"../coffeeaccesscontrol/DistributorRole.sol\";\r\nimport \"../coffeeaccesscontrol/RetailerRole.sol\";\r\nimport \"../coffeeaccesscontrol/ConsumerRole.sol\";\r\n\r\n// Define a contract 'Supplychain'\r\ncontract SupplyChain is Ownable {\r\n\r\n  // Define 'owner'\r\n  // address owner;\r\n\r\n  // Define a variable called 'upc' for Universal Product Code (UPC)\r\n  // uint256 upc;\r\n\r\n  // Define a variable called 'sku' for Stock Keeping Unit (SKU)\r\n  uint256 sku;\r\n\r\n  FarmerRole farmers;\r\n  DistributorRole distributors;\r\n  RetailerRole retailers;\r\n  ConsumerRole consumers;\r\n\r\n  // Define a public mapping 'items' that maps the UPC to an Item.\r\n  mapping(uint256 => Item) items;\r\n\r\n  // Define a public mapping 'itemsHistory' that maps the UPC to an array of TxHash, \r\n  // that track its journey through the supply chain -- to be sent from DApp.\r\n  // mapping(uint256 => string[]) itemsHistory;\r\n  \r\n  // Define enum 'State' with the following values:\r\n  enum State {\r\n    Harvested,  // 0\r\n    Processed,  // 1\r\n    Packed,     // 2\r\n    ForSale,    // 3\r\n    Sold,       // 4\r\n    Shipped,    // 5\r\n    Received,   // 6\r\n    Purchased   // 7\r\n  }\r\n\r\n  State constant defaultState = State.Harvested;\r\n\r\n  // Define a struct 'Item' with the following fields:\r\n  struct Item {\r\n    uint256 sku; // Stock Keeping Unit (SKU)\r\n    uint256 upc; // Universal Product Code (UPC), generated by the Farmer, goes on the package, can be verified by the Consumer\r\n    address ownerID;  // Metamask-Ethereum address of the current owner as the product moves through 8 stages\r\n    address originFarmerID; // Metamask-Ethereum address of the Farmer\r\n    string originFarmName; // Farmer Name\r\n    string originFarmInformation;  // Farmer Information\r\n    string originFarmLatitude; // Farm Latitude\r\n    string originFarmLongitude;  // Farm Longitude\r\n    uint256 productID;  // Product ID potentially a combination of upc + sku\r\n    string productNotes; // Product Notes\r\n    uint256 productPrice; // Product Price\r\n    State itemState;  // Product State as represented in the enum above\r\n    address distributorID;  // Metamask-Ethereum address of the Distributor\r\n    address retailerID; // Metamask-Ethereum address of the Retailer\r\n    address consumerID; // Metamask-Ethereum address of the Consumer\r\n  }\r\n\r\n  // Define 8 events with the same 8 state values and accept 'upc' as input argument\r\n  event Harvested(uint256 indexed upc);\r\n  event Processed(uint256 indexed upc);\r\n  event Packed(uint256 indexed upc);\r\n  event ForSale(uint256 indexed upc);\r\n  event Sold(uint256 indexed upc);\r\n  event Shipped(uint256 indexed upc);\r\n  event Received(uint256 indexed upc);\r\n  event Purchased(uint256 indexed upc);\r\n\r\n  // Define a modifer that checks to see if msg.sender == owner of the contract\r\n  // modifier onlyOwner() {\r\n  //   require(msg.sender == owner);\r\n  //   _;\r\n  // }\r\n\r\n  // Define a modifer that verifies the Caller\r\n  modifier verifyCaller(address _address) {\r\n    require(msg.sender == _address); \r\n    _;\r\n  }\r\n\r\n  modifier isFarmer() {\r\n    require(farmers.isFarmer(msg.sender));\r\n    _;\r\n  }\r\n\r\n  modifier isDistributor() {\r\n    require(distributors.isDistributor(msg.sender));\r\n    _;\r\n  }\r\n\r\n  modifier isRetailer() {\r\n    require(retailers.isRetailer(msg.sender));\r\n    _;\r\n  }\r\n\r\n  modifier isConsumer() {\r\n    require(consumers.isConsumer(msg.sender));\r\n    _;\r\n  }\r\n\r\n  // Define a modifier that checks if the paid amount is sufficient to cover the price\r\n  modifier paidEnough(uint256 _price) { \r\n    require(msg.value >= _price); \r\n    _;\r\n  }\r\n  \r\n  // Define a modifier that checks the price and refunds the remaining balance\r\n  modifier checkValue(uint256 _upc) {\r\n    _;\r\n    uint256 _price = items[_upc].productPrice;\r\n    uint256 amountToReturn = msg.value - _price;\r\n    payable(items[_upc].consumerID).transfer(amountToReturn);\r\n  }\r\n\r\n  // Define a modifier that checks if an item.state of a upc is Harvested\r\n  modifier harvested(uint256 _upc) {\r\n    require(items[_upc].itemState == State.Harvested);\r\n    _;\r\n  }\r\n\r\n  // // Define a modifier that checks if an item.state of a upc is Processed\r\n  modifier processed(uint256 _upc) {\r\n    require(items[_upc].itemState == State.Processed);\r\n    _;\r\n  }\r\n  \r\n  // Define a modifier that checks if an item.state of a upc is Packed\r\n  modifier packed(uint256 _upc) {\r\n    require(items[_upc].itemState == State.Packed);\r\n    _;\r\n  }\r\n\r\n  // Define a modifier that checks if an item.state of a upc is ForSale\r\n  modifier forSale(uint256 _upc) {\r\n    require(items[_upc].itemState == State.ForSale);\r\n    _;\r\n  }\r\n\r\n  // Define a modifier that checks if an item.state of a upc is Sold\r\n  modifier sold(uint256 _upc) {\r\n    require(items[_upc].itemState == State.Sold);\r\n    _;\r\n  }\r\n  \r\n  // Define a modifier that checks if an item.state of a upc is Shipped\r\n  modifier shipped(uint256 _upc) {\r\n    require(items[_upc].itemState == State.Shipped);\r\n    _;\r\n  }\r\n\r\n  // Define a modifier that checks if an item.state of a upc is Received\r\n  modifier received(uint256 _upc) {\r\n    require(items[_upc].itemState == State.Received);\r\n    _;\r\n  }\r\n\r\n  // Define a modifier that checks if an item.state of a upc is Purchased\r\n  modifier purchased(uint256 _upc) {\r\n    require(items[_upc].itemState == State.Purchased);\r\n    _;\r\n  }\r\n\r\n  // In the constructor set 'owner' to the address that instantiated the contract\r\n  // and set 'sku' to 1\r\n  // and set 'upc' to 1\r\n  constructor(address farmerRole, address distributorRole, address retailerRole, address consumerRole) payable {\r\n    // owner = msg.sender;\r\n    sku = 1;\r\n    // upc = 1;\r\n    \r\n    farmers = FarmerRole(farmerRole);\r\n    distributors = DistributorRole(distributorRole);\r\n    retailers = RetailerRole(retailerRole);\r\n    consumers = ConsumerRole(consumerRole);\r\n  }\r\n\r\n  // // Define a function 'kill' if required\r\n  function kill() public {\r\n    if (msg.sender == owner()) {\r\n      selfdestruct(payable(owner()));\r\n    }\r\n  }\r\n\r\n  // // Define a function 'harvestItem' that allows a farmer to mark an item 'Harvested'\r\n  function harvestItem(\r\n    uint256 _upc,\r\n    address _originFarmerID,\r\n    string memory _originFarmName,\r\n    string memory _originFarmInformation,\r\n    string memory _originFarmLatitude,\r\n    string memory _originFarmLongitude,\r\n    string memory _productNotes\r\n  ) public \r\n    isFarmer() \r\n    verifyCaller(_originFarmerID)\r\n  {\r\n    // Add the new item as part of Harvest\r\n    items[_upc] = Item(\r\n      sku,\r\n      _upc,\r\n      _originFarmerID,\r\n      _originFarmerID,\r\n      _originFarmName,\r\n      _originFarmInformation,\r\n      _originFarmLatitude,\r\n      _originFarmLongitude,\r\n      sku,\r\n      _productNotes,\r\n      0,\r\n      State.Harvested,\r\n      address(0),\r\n      address(0),\r\n      address(0)\r\n    );\r\n    \r\n    // Increment sku\r\n    sku = sku + 1;\r\n\r\n    // Emit the appropriate event\r\n    emit Harvested(_upc);\r\n  }\r\n\r\n  // Define a function 'processtItem' that allows a farmer to mark an item 'Processed'\r\n  function processItem(uint _upc) public \r\n    // Call modifier to check if upc has passed previous supply chain stage\r\n    harvested(_upc)\r\n    // Call modifier to verify caller of this function\r\n    verifyCaller(items[_upc].ownerID)\r\n    isFarmer()\r\n  {\r\n    // Update the appropriate fields\r\n    items[_upc].itemState = State.Processed;\r\n    \r\n    // Emit the appropriate event\r\n    emit Processed(_upc);\r\n  }\r\n\r\n  // Define a function 'packItem' that allows a farmer to mark an item 'Packed'\r\n  function packItem(uint _upc) public \r\n    // Call modifier to check if upc has passed previous supply chain stage\r\n    processed(_upc)\r\n    // Call modifier to verify caller of this function\r\n    verifyCaller(items[_upc].ownerID)\r\n    isFarmer()\r\n  {\r\n    // Update the appropriate fields\r\n    items[_upc].itemState = State.Packed;\r\n    \r\n    // Emit the appropriate event\r\n    emit Packed(_upc);\r\n  }\r\n\r\n  // Define a function 'sellItem' that allows a farmer to mark an item 'ForSale'\r\n  function sellItem(uint _upc, uint _price) public \r\n    // Call modifier to check if upc has passed previous supply chain stage\r\n    packed(_upc)\r\n    // Call modifier to verify caller of this function\r\n    verifyCaller(items[_upc].ownerID)\r\n    isFarmer()\r\n  {\r\n    // Update the appropriate fields\r\n    items[_upc].itemState = State.ForSale;\r\n    items[_upc].productPrice = _price;\r\n\r\n    // Emit the appropriate event\r\n    emit ForSale(_upc);\r\n  }\r\n\r\n  // Define a function 'buyItem' that allows the disributor to mark an item 'Sold'\r\n  // Use the above defined modifiers to check if the item is available for sale, if the buyer has paid enough, \r\n  // and any excess ether sent is refunded back to the buyer\r\n  function buyItem(uint _upc) public payable \r\n    // Call modifier to check if upc has passed previous supply chain stage\r\n    forSale(_upc)\r\n    isDistributor()\r\n    // Call modifer to check if buyer has paid enough\r\n    paidEnough(_upc)\r\n    // Call modifer to send any excess ether back to buyer\r\n    checkValue(_upc)\r\n  {\r\n    // Update the appropriate fields - ownerID, distributorID, itemState\r\n    items[_upc].ownerID = msg.sender;\r\n    items[_upc].distributorID = msg.sender;\r\n    items[_upc].itemState = State.Sold;\r\n    \r\n    // Transfer money to farmer\r\n    payable(items[_upc].originFarmerID).transfer(items[_upc].productPrice);\r\n\r\n    // emit the appropriate event\r\n    emit Sold(_upc);\r\n  }\r\n\r\n  // Define a function 'shipItem' that allows the distributor to mark an item 'Shipped'\r\n  // Use the above modifers to check if the item is sold\r\n  function shipItem(uint _upc) public \r\n    // Call modifier to check if upc has passed previous supply chain stage\r\n    sold(_upc)\r\n    // Call modifier to verify caller of this function\r\n    verifyCaller(items[_upc].ownerID)\r\n    isDistributor()\r\n  {\r\n    // Update the appropriate fields\r\n    items[_upc].itemState = State.Shipped;\r\n\r\n    // Emit the appropriate event\r\n    emit Shipped(_upc);\r\n  }\r\n\r\n  // Define a function 'receiveItem' that allows the retailer to mark an item 'Received'\r\n  // Use the above modifiers to check if the item is shipped\r\n  function receiveItem(uint _upc) public \r\n    // Call modifier to check if upc has passed previous supply chain stage\r\n    shipped(_upc)\r\n    // Access Control List enforced by calling Smart Contract / DApp\r\n    isRetailer()\r\n  {\r\n    // Update the appropriate fields - ownerID, retailerID, itemState\r\n    items[_upc].ownerID = msg.sender;\r\n    items[_upc].retailerID = msg.sender;\r\n    items[_upc].itemState = State.Received;\r\n\r\n    // Emit the appropriate event\r\n    emit Received(_upc);\r\n  }\r\n\r\n  // Define a function 'purchaseItem' that allows the consumer to mark an item 'Purchased'\r\n  // Use the above modifiers to check if the item is received\r\n  function purchaseItem(uint _upc) public \r\n    // Call modifier to check if upc has passed previous supply chain stage\r\n    received(_upc)\r\n    // Access Control List enforced by calling Smart Contract / DApp\r\n    isConsumer()\r\n  {\r\n    // Update the appropriate fields - ownerID, consumerID, itemState\r\n    items[_upc].ownerID = msg.sender;\r\n    items[_upc].consumerID = msg.sender;\r\n    items[_upc].itemState = State.Purchased;\r\n\r\n    // Emit the appropriate event\r\n    emit Purchased(_upc);\r\n  }\r\n\r\n  // Define a function 'fetchItemBufferOne' that fetches the data\r\n  function fetchItemBufferOne(uint _upc) public view returns (\r\n    uint256 itemSKU,\r\n    uint256 itemUPC,\r\n    address ownerID,\r\n    address originFarmerID,\r\n    string memory originFarmName,\r\n    string memory originFarmInformation,\r\n    string memory originFarmLatitude,\r\n    string memory originFarmLongitude\r\n  ) {\r\n    // Assign values to the 8 parameters\r\n    itemSKU = items[_upc].sku;\r\n    itemUPC = items[_upc].upc;\r\n    ownerID = items[_upc].ownerID;\r\n    originFarmerID = items[_upc].originFarmerID;\r\n    originFarmName = items[_upc].originFarmName;\r\n    originFarmInformation = items[_upc].originFarmInformation;\r\n    originFarmLatitude = items[_upc].originFarmLatitude;\r\n    originFarmLongitude = items[_upc].originFarmLongitude;\r\n\r\n    return (\r\n      itemSKU,\r\n      itemUPC,\r\n      ownerID,\r\n      originFarmerID,\r\n      originFarmName,\r\n      originFarmInformation,\r\n      originFarmLatitude,\r\n      originFarmLongitude\r\n    );\r\n  }\r\n\r\n  // Define a function 'fetchItemBufferTwo' that fetches the data\r\n  function fetchItemBufferTwo(uint _upc) public view returns (\r\n    uint256 itemSKU,\r\n    uint256 itemUPC,\r\n    uint256 productID,\r\n    string memory productNotes,\r\n    uint256 productPrice,\r\n    uint256 itemState,\r\n    address distributorID,\r\n    address retailerID,\r\n    address consumerID\r\n  ) {\r\n    // Assign values to the 9 parameters\r\n    itemSKU = items[_upc].sku;\r\n    itemUPC = items[_upc].upc;\r\n    productID = items[_upc].productID;\r\n    productNotes = items[_upc].productNotes;\r\n    productPrice = items[_upc].productPrice;\r\n    itemState = uint256(items[_upc].itemState);\r\n    distributorID = items[_upc].distributorID;\r\n    retailerID = items[_upc].retailerID;\r\n    consumerID = items[_upc].consumerID;\r\n    \r\n    return (\r\n      itemSKU,\r\n      itemUPC,\r\n      productID,\r\n      productNotes,\r\n      productPrice,\r\n      itemState,\r\n      distributorID,\r\n      retailerID,\r\n      consumerID\r\n    );\r\n  }\r\n}\r\n",
  "sourcePath": "C:\\Users\\Edward\\Desktop\\Project 3\\nd1309-Project-6b-Example-Template\\project-6\\contracts\\coffeebase\\SupplyChain.sol",
  "compiler": {
    "name": "solc",
    "version": "0.8.17+commit.8df45f5f.Emscripten.clang"
  },
  "schemaVersion": "3.4.11",
  "updatedAt": "2022-12-17T23:02:16.176Z",
  "devdoc": {
    "kind": "dev",
    "methods": {},
    "version": 1
  },
  "userdoc": {
    "kind": "user",
    "methods": {
      "isOwner()": {
        "notice": "Check if the calling address is the owner of the contract"
      },
      "owner()": {
        "notice": "Look up the address of the owner"
      },
      "renounceOwnership()": {
        "notice": "Define a function to renounce ownerhip"
      },
      "transferOwnership(address)": {
        "notice": "Define a public function to transfer ownership"
      }
    },
    "version": 1
  }
}