{
  "contractName": "SupplyChain",
  "abi": [
    {
      "inputs": [
        {
          "internalType": "address",
          "name": "farmerRole",
          "type": "address"
        },
        {
          "internalType": "address",
          "name": "millRole",
          "type": "address"
        },
        {
          "internalType": "address",
          "name": "refineryRole",
          "type": "address"
        },
        {
          "internalType": "address",
          "name": "distributorRole",
          "type": "address"
        },
        {
          "internalType": "address",
          "name": "retailerRole",
          "type": "address"
        },
        {
          "internalType": "address",
          "name": "consumerRole",
          "type": "address"
        }
      ],
      "stateMutability": "payable",
      "type": "constructor",
      "payable": true
    },
    {
      "anonymous": false,
      "inputs": [
        {
          "indexed": true,
          "internalType": "uint256",
          "name": "upc",
          "type": "uint256"
        }
      ],
      "name": "BoughtByConsumer",
      "type": "event"
    },
    {
      "anonymous": false,
      "inputs": [
        {
          "indexed": true,
          "internalType": "uint256",
          "name": "upc",
          "type": "uint256"
        }
      ],
      "name": "BoughtByDistributor",
      "type": "event"
    },
    {
      "anonymous": false,
      "inputs": [
        {
          "indexed": true,
          "internalType": "uint256",
          "name": "upc",
          "type": "uint256"
        }
      ],
      "name": "ForSaleToConsumer",
      "type": "event"
    },
    {
      "anonymous": false,
      "inputs": [
        {
          "indexed": true,
          "internalType": "uint256",
          "name": "upc",
          "type": "uint256"
        }
      ],
      "name": "ForSaleToDistributor",
      "type": "event"
    },
    {
      "anonymous": false,
      "inputs": [
        {
          "indexed": true,
          "internalType": "uint256",
          "name": "upc",
          "type": "uint256"
        }
      ],
      "name": "Harvested",
      "type": "event"
    },
    {
      "anonymous": false,
      "inputs": [
        {
          "indexed": true,
          "internalType": "uint256",
          "name": "upc",
          "type": "uint256"
        }
      ],
      "name": "Milled",
      "type": "event"
    },
    {
      "anonymous": false,
      "inputs": [
        {
          "indexed": true,
          "internalType": "uint256",
          "name": "upc",
          "type": "uint256"
        }
      ],
      "name": "Packed",
      "type": "event"
    },
    {
      "anonymous": false,
      "inputs": [
        {
          "indexed": true,
          "internalType": "uint256",
          "name": "upc",
          "type": "uint256"
        }
      ],
      "name": "ReceivedByMill",
      "type": "event"
    },
    {
      "anonymous": false,
      "inputs": [
        {
          "indexed": true,
          "internalType": "uint256",
          "name": "upc",
          "type": "uint256"
        }
      ],
      "name": "ReceivedByRefinery",
      "type": "event"
    },
    {
      "anonymous": false,
      "inputs": [
        {
          "indexed": true,
          "internalType": "uint256",
          "name": "upc",
          "type": "uint256"
        }
      ],
      "name": "ReceivedByRetailer",
      "type": "event"
    },
    {
      "anonymous": false,
      "inputs": [
        {
          "indexed": true,
          "internalType": "uint256",
          "name": "upc",
          "type": "uint256"
        }
      ],
      "name": "Refined",
      "type": "event"
    },
    {
      "anonymous": false,
      "inputs": [
        {
          "indexed": true,
          "internalType": "uint256",
          "name": "upc",
          "type": "uint256"
        }
      ],
      "name": "SentToMill",
      "type": "event"
    },
    {
      "anonymous": false,
      "inputs": [
        {
          "indexed": true,
          "internalType": "uint256",
          "name": "upc",
          "type": "uint256"
        }
      ],
      "name": "SentToRefinery",
      "type": "event"
    },
    {
      "anonymous": false,
      "inputs": [
        {
          "indexed": true,
          "internalType": "uint256",
          "name": "upc",
          "type": "uint256"
        }
      ],
      "name": "SentToRetailer",
      "type": "event"
    },
    {
      "anonymous": false,
      "inputs": [
        {
          "indexed": true,
          "internalType": "address",
          "name": "oldOwner",
          "type": "address"
        },
        {
          "indexed": true,
          "internalType": "address",
          "name": "newOwner",
          "type": "address"
        }
      ],
      "name": "TransferOwnership",
      "type": "event"
    },
    {
      "inputs": [],
      "name": "isOwner",
      "outputs": [
        {
          "internalType": "bool",
          "name": "",
          "type": "bool"
        }
      ],
      "stateMutability": "view",
      "type": "function",
      "constant": true
    },
    {
      "inputs": [],
      "name": "owner",
      "outputs": [
        {
          "internalType": "address",
          "name": "",
          "type": "address"
        }
      ],
      "stateMutability": "view",
      "type": "function",
      "constant": true
    },
    {
      "inputs": [],
      "name": "renounceOwnership",
      "outputs": [],
      "stateMutability": "nonpayable",
      "type": "function"
    },
    {
      "inputs": [
        {
          "internalType": "address",
          "name": "newOwner",
          "type": "address"
        }
      ],
      "name": "transferOwnership",
      "outputs": [],
      "stateMutability": "nonpayable",
      "type": "function"
    },
    {
      "inputs": [],
      "name": "kill",
      "outputs": [],
      "stateMutability": "nonpayable",
      "type": "function"
    },
    {
      "inputs": [
        {
          "internalType": "uint256",
          "name": "_upc",
          "type": "uint256"
        },
        {
          "internalType": "string",
          "name": "_originFarmName",
          "type": "string"
        },
        {
          "internalType": "string",
          "name": "_originFarmInformation",
          "type": "string"
        },
        {
          "internalType": "string",
          "name": "_originFarmLatitude",
          "type": "string"
        },
        {
          "internalType": "string",
          "name": "_originFarmLongitude",
          "type": "string"
        },
        {
          "internalType": "string",
          "name": "_productNotes",
          "type": "string"
        }
      ],
      "name": "harvestSugarcane",
      "outputs": [],
      "stateMutability": "nonpayable",
      "type": "function"
    },
    {
      "inputs": [
        {
          "internalType": "uint256",
          "name": "_upc",
          "type": "uint256"
        }
      ],
      "name": "sendToMill",
      "outputs": [],
      "stateMutability": "nonpayable",
      "type": "function"
    },
    {
      "inputs": [
        {
          "internalType": "uint256",
          "name": "_upc",
          "type": "uint256"
        }
      ],
      "name": "receiveByMill",
      "outputs": [],
      "stateMutability": "nonpayable",
      "type": "function"
    },
    {
      "inputs": [
        {
          "internalType": "uint256",
          "name": "_upc",
          "type": "uint256"
        }
      ],
      "name": "millSugarcane",
      "outputs": [],
      "stateMutability": "nonpayable",
      "type": "function"
    },
    {
      "inputs": [
        {
          "internalType": "uint256",
          "name": "_upc",
          "type": "uint256"
        }
      ],
      "name": "sendToRefinery",
      "outputs": [],
      "stateMutability": "nonpayable",
      "type": "function"
    },
    {
      "inputs": [
        {
          "internalType": "uint256",
          "name": "_upc",
          "type": "uint256"
        }
      ],
      "name": "receiveByRefinery",
      "outputs": [],
      "stateMutability": "nonpayable",
      "type": "function"
    },
    {
      "inputs": [
        {
          "internalType": "uint256",
          "name": "_upc",
          "type": "uint256"
        }
      ],
      "name": "refineRawSugar",
      "outputs": [],
      "stateMutability": "nonpayable",
      "type": "function"
    },
    {
      "inputs": [
        {
          "internalType": "uint256",
          "name": "_upc",
          "type": "uint256"
        }
      ],
      "name": "packRefinedSugar",
      "outputs": [],
      "stateMutability": "nonpayable",
      "type": "function"
    },
    {
      "inputs": [
        {
          "internalType": "uint256",
          "name": "_upc",
          "type": "uint256"
        },
        {
          "internalType": "uint256",
          "name": "_price",
          "type": "uint256"
        }
      ],
      "name": "sellToDistributor",
      "outputs": [],
      "stateMutability": "nonpayable",
      "type": "function"
    },
    {
      "inputs": [
        {
          "internalType": "uint256",
          "name": "_upc",
          "type": "uint256"
        }
      ],
      "name": "buyByDistributor",
      "outputs": [],
      "stateMutability": "payable",
      "type": "function",
      "payable": true
    },
    {
      "inputs": [
        {
          "internalType": "uint256",
          "name": "_upc",
          "type": "uint256"
        }
      ],
      "name": "sendToRetailer",
      "outputs": [],
      "stateMutability": "nonpayable",
      "type": "function"
    },
    {
      "inputs": [
        {
          "internalType": "uint256",
          "name": "_upc",
          "type": "uint256"
        }
      ],
      "name": "receiveByRetailer",
      "outputs": [],
      "stateMutability": "nonpayable",
      "type": "function"
    },
    {
      "inputs": [
        {
          "internalType": "uint256",
          "name": "_upc",
          "type": "uint256"
        },
        {
          "internalType": "uint256",
          "name": "_price",
          "type": "uint256"
        }
      ],
      "name": "sellToConsumer",
      "outputs": [],
      "stateMutability": "nonpayable",
      "type": "function"
    },
    {
      "inputs": [
        {
          "internalType": "uint256",
          "name": "_upc",
          "type": "uint256"
        }
      ],
      "name": "buyByConsumer",
      "outputs": [],
      "stateMutability": "payable",
      "type": "function",
      "payable": true
    },
    {
      "inputs": [
        {
          "internalType": "uint256",
          "name": "_upc",
          "type": "uint256"
        }
      ],
      "name": "fetchItemBufferOne",
      "outputs": [
        {
          "internalType": "uint256",
          "name": "itemSKU",
          "type": "uint256"
        },
        {
          "internalType": "uint256",
          "name": "itemUPC",
          "type": "uint256"
        },
        {
          "internalType": "address",
          "name": "ownerID",
          "type": "address"
        },
        {
          "internalType": "address",
          "name": "originFarmerID",
          "type": "address"
        },
        {
          "internalType": "string",
          "name": "originFarmName",
          "type": "string"
        },
        {
          "internalType": "string",
          "name": "originFarmInformation",
          "type": "string"
        },
        {
          "internalType": "string",
          "name": "originFarmLatitude",
          "type": "string"
        },
        {
          "internalType": "string",
          "name": "originFarmLongitude",
          "type": "string"
        }
      ],
      "stateMutability": "view",
      "type": "function",
      "constant": true
    },
    {
      "inputs": [
        {
          "internalType": "uint256",
          "name": "_upc",
          "type": "uint256"
        }
      ],
      "name": "fetchItemBufferTwo",
      "outputs": [
        {
          "internalType": "uint256",
          "name": "itemSKU",
          "type": "uint256"
        },
        {
          "internalType": "uint256",
          "name": "itemUPC",
          "type": "uint256"
        },
        {
          "internalType": "string",
          "name": "productNotes",
          "type": "string"
        },
        {
          "internalType": "uint256",
          "name": "priceToDistributor",
          "type": "uint256"
        },
        {
          "internalType": "uint256",
          "name": "priceToConsumer",
          "type": "uint256"
        },
        {
          "internalType": "uint256",
          "name": "itemState",
          "type": "uint256"
        },
        {
          "internalType": "address",
          "name": "millID",
          "type": "address"
        },
        {
          "internalType": "address",
          "name": "refineryID",
          "type": "address"
        },
        {
          "internalType": "address",
          "name": "distributorID",
          "type": "address"
        },
        {
          "internalType": "address",
          "name": "retailerID",
          "type": "address"
        },
        {
          "internalType": "address",
          "name": "consumerID",
          "type": "address"
        }
      ],
      "stateMutability": "view",
      "type": "function",
      "constant": true
    }
  ],
  "bytecode": "0x608060405260405162003b6f38038062003b6f8339818101604052810190620000299190620002e7565b336000806101000a81548173ffffffffffffffffffffffffffffffffffffffff021916908373ffffffffffffffffffffffffffffffffffffffff16021790555060008054906101000a900473ffffffffffffffffffffffffffffffffffffffff1673ffffffffffffffffffffffffffffffffffffffff16600073ffffffffffffffffffffffffffffffffffffffff167f5c486528ec3e3f0ea91181cff8116f02bfa350e03b8b6f12e00765adbb5af85c60405160405180910390a36001808190555085600260006101000a81548173ffffffffffffffffffffffffffffffffffffffff021916908373ffffffffffffffffffffffffffffffffffffffff16021790555084600360006101000a81548173ffffffffffffffffffffffffffffffffffffffff021916908373ffffffffffffffffffffffffffffffffffffffff16021790555083600460006101000a81548173ffffffffffffffffffffffffffffffffffffffff021916908373ffffffffffffffffffffffffffffffffffffffff16021790555082600560006101000a81548173ffffffffffffffffffffffffffffffffffffffff021916908373ffffffffffffffffffffffffffffffffffffffff16021790555081600660006101000a81548173ffffffffffffffffffffffffffffffffffffffff021916908373ffffffffffffffffffffffffffffffffffffffff16021790555080600760006101000a81548173ffffffffffffffffffffffffffffffffffffffff021916908373ffffffffffffffffffffffffffffffffffffffff16021790555050505050505062000383565b600080fd5b600073ffffffffffffffffffffffffffffffffffffffff82169050919050565b6000620002af8262000282565b9050919050565b620002c181620002a2565b8114620002cd57600080fd5b50565b600081519050620002e181620002b6565b92915050565b60008060008060008060c087890312156200030757620003066200027d565b5b60006200031789828a01620002d0565b96505060206200032a89828a01620002d0565b95505060406200033d89828a01620002d0565b94505060606200035089828a01620002d0565b93505060806200036389828a01620002d0565b92505060a06200037689828a01620002d0565b9150509295509295509295565b6137dc80620003936000396000f3fe60806040526004361061012a5760003560e01c80638da5cb5b116100ab578063ba6228641161006f578063ba62286414610395578063baf6430d146103be578063e265febf146103e7578063e2c4e23814610410578063f2fde38b14610439578063f7b37d1b146104625761012a565b80638da5cb5b146102d15780638f32d59b146102fc57806392844f6b146103275780639d82551514610343578063b49d980e1461036c5761012a565b806366225ff9116100f257806366225ff9146101dd578063715018a614610224578063744a71c21461023b578063759aea091461026457806377c459131461028d5761012a565b806308acb8de1461012f578063238a31ab146101585780632be692531461018157806341c0e1b51461019d57806357962390146101b4575b600080fd5b34801561013b57600080fd5b5061015660048036038101906101519190612e18565b61048b565b005b34801561016457600080fd5b5061017f600480360381019061017a9190612e18565b610665565b005b61019b60048036038101906101969190612e18565b61083f565b005b3480156101a957600080fd5b506101b2610b7d565b005b3480156101c057600080fd5b506101db60048036038101906101d69190612e18565b610bd9565b005b3480156101e957600080fd5b5061020460048036038101906101ff9190612e18565b610db3565b60405161021b9b9a99989796959493929190612f25565b60405180910390f35b34801561023057600080fd5b5061023961102d565b005b34801561024757600080fd5b50610262600480360381019061025d9190612fd7565b6110fc565b005b34801561027057600080fd5b5061028b60048036038101906102869190612e18565b6112f2565b005b34801561029957600080fd5b506102b460048036038101906102af9190612e18565b611506565b6040516102c8989796959493929190613017565b60405180910390f35b3480156102dd57600080fd5b506102e6611845565b6040516102f391906130b1565b60405180910390f35b34801561030857600080fd5b5061031161186e565b60405161031e91906130e7565b60405180910390f35b610341600480360381019061033c9190612e18565b6118c5565b005b34801561034f57600080fd5b5061036a60048036038101906103659190613237565b611c03565b005b34801561037857600080fd5b50610393600480360381019061038e9190612e18565b612110565b005b3480156103a157600080fd5b506103bc60048036038101906103b79190612e18565b612324565b005b3480156103ca57600080fd5b506103e560048036038101906103e09190612e18565b6124fe565b005b3480156103f357600080fd5b5061040e60048036038101906104099190612e18565b612712565b005b34801561041c57600080fd5b5061043760048036038101906104329190612e18565b6128ec565b005b34801561044557600080fd5b50610460600480360381019061045b919061337c565b612ac6565b005b34801561046e57600080fd5b5061048960048036038101906104849190612fd7565b612ae3565b005b806009600d8111156104a05761049f6133a9565b5b6008600083815260200190815260200160002060020160149054906101000a900460ff16600d8111156104d6576104d56133a9565b5b146104e057600080fd5b6008600083815260200190815260200160002060020160009054906101000a900473ffffffffffffffffffffffffffffffffffffffff168073ffffffffffffffffffffffffffffffffffffffff163373ffffffffffffffffffffffffffffffffffffffff161461054f57600080fd5b600560009054906101000a900473ffffffffffffffffffffffffffffffffffffffff1673ffffffffffffffffffffffffffffffffffffffff16638f0c86fa336040518263ffffffff1660e01b81526004016105aa91906130b1565b602060405180830381865afa1580156105c7573d6000803e3d6000fd5b505050506040513d601f19601f820116820180604052508101906105eb9190613404565b6105f457600080fd5b600a6008600085815260200190815260200160002060020160146101000a81548160ff0219169083600d81111561062e5761062d6133a9565b5b0217905550827f4b2d61ce71c4f5f084576af79c39f72c39f918b2b822d2525190e42ecda38d1760405160405180910390a2505050565b806000600d81111561067a576106796133a9565b5b6008600083815260200190815260200160002060020160149054906101000a900460ff16600d8111156106b0576106af6133a9565b5b146106ba57600080fd5b6008600083815260200190815260200160002060020160009054906101000a900473ffffffffffffffffffffffffffffffffffffffff168073ffffffffffffffffffffffffffffffffffffffff163373ffffffffffffffffffffffffffffffffffffffff161461072957600080fd5b600260009054906101000a900473ffffffffffffffffffffffffffffffffffffffff1673ffffffffffffffffffffffffffffffffffffffff1663b9429069336040518263ffffffff1660e01b815260040161078491906130b1565b602060405180830381865afa1580156107a1573d6000803e3d6000fd5b505050506040513d601f19601f820116820180604052508101906107c59190613404565b6107ce57600080fd5b60016008600085815260200190815260200160002060020160146101000a81548160ff0219169083600d811115610808576108076133a9565b5b0217905550827f661a964f5ae7ea0a40e937a726d9285aa028a0e3201e20433d333ea0c7feb22a60405160405180910390a2505050565b80600c600d811115610854576108536133a9565b5b6008600083815260200190815260200160002060020160149054906101000a900460ff16600d81111561088a576108896133a9565b5b1461089457600080fd5b600760009054906101000a900473ffffffffffffffffffffffffffffffffffffffff1673ffffffffffffffffffffffffffffffffffffffff1663834ff739336040518263ffffffff1660e01b81526004016108ef91906130b1565b602060405180830381865afa15801561090c573d6000803e3d6000fd5b505050506040513d601f19601f820116820180604052508101906109309190613404565b61093957600080fd5b60086000838152602001908152602001600020600501548034101561095d57600080fd5b600860008481526020019081526020016000206005015433336008600087815260200190815260200160002060020160006101000a81548173ffffffffffffffffffffffffffffffffffffffff021916908373ffffffffffffffffffffffffffffffffffffffff1602179055503360086000878152602001908152602001600020600f0160006101000a81548173ffffffffffffffffffffffffffffffffffffffff021916908373ffffffffffffffffffffffffffffffffffffffff160217905550600d6008600087815260200190815260200160002060020160146101000a81548160ff0219169083600d811115610a5957610a586133a9565b5b021790555060086000868152602001908152602001600020600e0160009054906101000a900473ffffffffffffffffffffffffffffffffffffffff1673ffffffffffffffffffffffffffffffffffffffff166108fc60086000888152602001908152602001600020600501549081150290604051600060405180830381858888f19350505050158015610af0573d6000803e3d6000fd5b50847f4df39d1b00b9eb27227f5b2731af1a5c756969533540b415979caa2b1ed0220660405160405180910390a260008234610b2c9190613460565b90508173ffffffffffffffffffffffffffffffffffffffff166108fc829081150290604051600060405180830381858888f19350505050158015610b74573d6000803e3d6000fd5b50505050505050565b610b85611845565b73ffffffffffffffffffffffffffffffffffffffff163373ffffffffffffffffffffffffffffffffffffffff1603610bd757610bbf611845565b73ffffffffffffffffffffffffffffffffffffffff16ff5b565b806006600d811115610bee57610bed6133a9565b5b6008600083815260200190815260200160002060020160149054906101000a900460ff16600d811115610c2457610c236133a9565b5b14610c2e57600080fd5b6008600083815260200190815260200160002060020160009054906101000a900473ffffffffffffffffffffffffffffffffffffffff168073ffffffffffffffffffffffffffffffffffffffff163373ffffffffffffffffffffffffffffffffffffffff1614610c9d57600080fd5b600460009054906101000a900473ffffffffffffffffffffffffffffffffffffffff1673ffffffffffffffffffffffffffffffffffffffff1663b6de8783336040518263ffffffff1660e01b8152600401610cf891906130b1565b602060405180830381865afa158015610d15573d6000803e3d6000fd5b505050506040513d601f19601f82011682018060405250810190610d399190613404565b610d4257600080fd5b60076008600085815260200190815260200160002060020160146101000a81548160ff0219169083600d811115610d7c57610d7b6133a9565b5b0217905550827f9b3b66e2380b690bae22c73ef1428fb0c91e72fe14a4b6defa13035214187aff60405160405180910390a2505050565b6000806060600080600080600080600080600860008d8152602001908152602001600020600001549a50600860008d8152602001908152602001600020600101549950600860008d81526020019081526020016000206003018054610e17906134c3565b80601f0160208091040260200160405190810160405280929190818152602001828054610e43906134c3565b8015610e905780601f10610e6557610100808354040283529160200191610e90565b820191906000526020600020905b815481529060010190602001808311610e7357829003601f168201915b50505050509850600860008d8152602001908152602001600020600401549750600860008d8152602001908152602001600020600501549650600860008d815260200190815260200160002060020160149054906101000a900460ff16600d811115610eff57610efe6133a9565b5b9550600860008d8152602001908152602001600020600b0160009054906101000a900473ffffffffffffffffffffffffffffffffffffffff169450600860008d8152602001908152602001600020600c0160009054906101000a900473ffffffffffffffffffffffffffffffffffffffff169350600860008d8152602001908152602001600020600d0160009054906101000a900473ffffffffffffffffffffffffffffffffffffffff169250600860008d8152602001908152602001600020600e0160009054906101000a900473ffffffffffffffffffffffffffffffffffffffff169150600860008d8152602001908152602001600020600f0160009054906101000a900473ffffffffffffffffffffffffffffffffffffffff16905091939597999b90929496989a50565b61103561186e565b61103e57600080fd5b600073ffffffffffffffffffffffffffffffffffffffff1660008054906101000a900473ffffffffffffffffffffffffffffffffffffffff1673ffffffffffffffffffffffffffffffffffffffff167f5c486528ec3e3f0ea91181cff8116f02bfa350e03b8b6f12e00765adbb5af85c60405160405180910390a360008060006101000a81548173ffffffffffffffffffffffffffffffffffffffff021916908373ffffffffffffffffffffffffffffffffffffffff160217905550565b81600b600d811115611111576111106133a9565b5b6008600083815260200190815260200160002060020160149054906101000a900460ff16600d811115611147576111466133a9565b5b1461115157600080fd5b6008600084815260200190815260200160002060020160009054906101000a900473ffffffffffffffffffffffffffffffffffffffff168073ffffffffffffffffffffffffffffffffffffffff163373ffffffffffffffffffffffffffffffffffffffff16146111c057600080fd5b600660009054906101000a900473ffffffffffffffffffffffffffffffffffffffff1673ffffffffffffffffffffffffffffffffffffffff16635da09b88336040518263ffffffff1660e01b815260040161121b91906130b1565b602060405180830381865afa158015611238573d6000803e3d6000fd5b505050506040513d601f19601f8201168201806040525081019061125c9190613404565b61126557600080fd5b600c6008600086815260200190815260200160002060020160146101000a81548160ff0219169083600d81111561129f5761129e6133a9565b5b0217905550826008600086815260200190815260200160002060050181905550837fc51d5fe59df8e8dc2be9a802f2c0d0926314cf594593cd2ea216ddc6cb60f7c160405160405180910390a250505050565b806001600d811115611307576113066133a9565b5b6008600083815260200190815260200160002060020160149054906101000a900460ff16600d81111561133d5761133c6133a9565b5b1461134757600080fd5b600360009054906101000a900473ffffffffffffffffffffffffffffffffffffffff1673ffffffffffffffffffffffffffffffffffffffff1663150e3465336040518263ffffffff1660e01b81526004016113a291906130b1565b602060405180830381865afa1580156113bf573d6000803e3d6000fd5b505050506040513d601f19601f820116820180604052508101906113e39190613404565b6113ec57600080fd5b336008600084815260200190815260200160002060020160006101000a81548173ffffffffffffffffffffffffffffffffffffffff021916908373ffffffffffffffffffffffffffffffffffffffff1602179055503360086000848152602001908152602001600020600b0160006101000a81548173ffffffffffffffffffffffffffffffffffffffff021916908373ffffffffffffffffffffffffffffffffffffffff16021790555060026008600084815260200190815260200160002060020160146101000a81548160ff0219169083600d8111156114d0576114cf6133a9565b5b0217905550817fa676bcb0440c9a18d2c64f083db6447ca11f525cda49c29cfc4e23035650b99b60405160405180910390a25050565b600080600080606080606080600860008a8152602001908152602001600020600001549750600860008a8152602001908152602001600020600101549650600860008a815260200190815260200160002060020160009054906101000a900473ffffffffffffffffffffffffffffffffffffffff169550600860008a815260200190815260200160002060060160009054906101000a900473ffffffffffffffffffffffffffffffffffffffff169450600860008a815260200190815260200160002060070180546115d7906134c3565b80601f0160208091040260200160405190810160405280929190818152602001828054611603906134c3565b80156116505780601f1061162557610100808354040283529160200191611650565b820191906000526020600020905b81548152906001019060200180831161163357829003601f168201915b50505050509350600860008a81526020019081526020016000206008018054611678906134c3565b80601f01602080910402602001604051908101604052809291908181526020018280546116a4906134c3565b80156116f15780601f106116c6576101008083540402835291602001916116f1565b820191906000526020600020905b8154815290600101906020018083116116d457829003601f168201915b50505050509250600860008a81526020019081526020016000206009018054611719906134c3565b80601f0160208091040260200160405190810160405280929190818152602001828054611745906134c3565b80156117925780601f1061176757610100808354040283529160200191611792565b820191906000526020600020905b81548152906001019060200180831161177557829003601f168201915b50505050509150600860008a8152602001908152602001600020600a0180546117ba906134c3565b80601f01602080910402602001604051908101604052809291908181526020018280546117e6906134c3565b80156118335780601f1061180857610100808354040283529160200191611833565b820191906000526020600020905b81548152906001019060200180831161181657829003601f168201915b50505050509050919395975091939597565b60008060009054906101000a900473ffffffffffffffffffffffffffffffffffffffff16905090565b60008060009054906101000a900473ffffffffffffffffffffffffffffffffffffffff1673ffffffffffffffffffffffffffffffffffffffff163373ffffffffffffffffffffffffffffffffffffffff1614905090565b806008600d8111156118da576118d96133a9565b5b6008600083815260200190815260200160002060020160149054906101000a900460ff16600d8111156119105761190f6133a9565b5b1461191a57600080fd5b600560009054906101000a900473ffffffffffffffffffffffffffffffffffffffff1673ffffffffffffffffffffffffffffffffffffffff16638f0c86fa336040518263ffffffff1660e01b815260040161197591906130b1565b602060405180830381865afa158015611992573d6000803e3d6000fd5b505050506040513d601f19601f820116820180604052508101906119b69190613404565b6119bf57600080fd5b6008600083815260200190815260200160002060040154803410156119e357600080fd5b600860008481526020019081526020016000206004015433336008600087815260200190815260200160002060020160006101000a81548173ffffffffffffffffffffffffffffffffffffffff021916908373ffffffffffffffffffffffffffffffffffffffff1602179055503360086000878152602001908152602001600020600d0160006101000a81548173ffffffffffffffffffffffffffffffffffffffff021916908373ffffffffffffffffffffffffffffffffffffffff16021790555060096008600087815260200190815260200160002060020160146101000a81548160ff0219169083600d811115611adf57611ade6133a9565b5b021790555060086000868152602001908152602001600020600c0160009054906101000a900473ffffffffffffffffffffffffffffffffffffffff1673ffffffffffffffffffffffffffffffffffffffff166108fc60086000888152602001908152602001600020600401549081150290604051600060405180830381858888f19350505050158015611b76573d6000803e3d6000fd5b50847fb64a650bd16fdcc58820f555d97b554e91b54798dad96aa8edc7bfbe9485603a60405160405180910390a260008234611bb29190613460565b90508173ffffffffffffffffffffffffffffffffffffffff166108fc829081150290604051600060405180830381858888f19350505050158015611bfa573d6000803e3d6000fd5b50505050505050565b600260009054906101000a900473ffffffffffffffffffffffffffffffffffffffff1673ffffffffffffffffffffffffffffffffffffffff1663b9429069336040518263ffffffff1660e01b8152600401611c5e91906130b1565b602060405180830381865afa158015611c7b573d6000803e3d6000fd5b505050506040513d601f19601f82011682018060405250810190611c9f9190613404565b611ca857600080fd5b6000600860008881526020019081526020016000206000015414611ccb57600080fd5b60405180610220016040528060015481526020018781526020013373ffffffffffffffffffffffffffffffffffffffff1681526020016000600d811115611d1557611d146133a9565b5b815260200182815260200160008152602001600081526020013373ffffffffffffffffffffffffffffffffffffffff168152602001868152602001858152602001848152602001838152602001600073ffffffffffffffffffffffffffffffffffffffff168152602001600073ffffffffffffffffffffffffffffffffffffffff168152602001600073ffffffffffffffffffffffffffffffffffffffff168152602001600073ffffffffffffffffffffffffffffffffffffffff168152602001600073ffffffffffffffffffffffffffffffffffffffff1681525060086000888152602001908152602001600020600082015181600001556020820151816001015560408201518160020160006101000a81548173ffffffffffffffffffffffffffffffffffffffff021916908373ffffffffffffffffffffffffffffffffffffffff16021790555060608201518160020160146101000a81548160ff0219169083600d811115611e8a57611e896133a9565b5b02179055506080820151816003019081611ea491906136a0565b5060a0820151816004015560c0820151816005015560e08201518160060160006101000a81548173ffffffffffffffffffffffffffffffffffffffff021916908373ffffffffffffffffffffffffffffffffffffffff160217905550610100820151816007019081611f1691906136a0565b50610120820151816008019081611f2d91906136a0565b50610140820151816009019081611f4491906136a0565b5061016082015181600a019081611f5b91906136a0565b5061018082015181600b0160006101000a81548173ffffffffffffffffffffffffffffffffffffffff021916908373ffffffffffffffffffffffffffffffffffffffff1602179055506101a082015181600c0160006101000a81548173ffffffffffffffffffffffffffffffffffffffff021916908373ffffffffffffffffffffffffffffffffffffffff1602179055506101c082015181600d0160006101000a81548173ffffffffffffffffffffffffffffffffffffffff021916908373ffffffffffffffffffffffffffffffffffffffff1602179055506101e082015181600e0160006101000a81548173ffffffffffffffffffffffffffffffffffffffff021916908373ffffffffffffffffffffffffffffffffffffffff16021790555061020082015181600f0160006101000a81548173ffffffffffffffffffffffffffffffffffffffff021916908373ffffffffffffffffffffffffffffffffffffffff160217905550905050600180546120d59190613772565b600181905550857f8e55ccfc9778ff8eba1646d765cf1982537ce0f9257054a17b48aad74525018360405160405180910390a2505050505050565b806004600d811115612125576121246133a9565b5b6008600083815260200190815260200160002060020160149054906101000a900460ff16600d81111561215b5761215a6133a9565b5b1461216557600080fd5b600460009054906101000a900473ffffffffffffffffffffffffffffffffffffffff1673ffffffffffffffffffffffffffffffffffffffff1663b6de8783336040518263ffffffff1660e01b81526004016121c091906130b1565b602060405180830381865afa1580156121dd573d6000803e3d6000fd5b505050506040513d601f19601f820116820180604052508101906122019190613404565b61220a57600080fd5b336008600084815260200190815260200160002060020160006101000a81548173ffffffffffffffffffffffffffffffffffffffff021916908373ffffffffffffffffffffffffffffffffffffffff1602179055503360086000848152602001908152602001600020600c0160006101000a81548173ffffffffffffffffffffffffffffffffffffffff021916908373ffffffffffffffffffffffffffffffffffffffff16021790555060056008600084815260200190815260200160002060020160146101000a81548160ff0219169083600d8111156122ee576122ed6133a9565b5b0217905550817fc0eefa3ec2382e68249d9e4a982c6b3e4849e93d7ab2d4c5067275d37b1a577260405160405180910390a25050565b806002600d811115612339576123386133a9565b5b6008600083815260200190815260200160002060020160149054906101000a900460ff16600d81111561236f5761236e6133a9565b5b1461237957600080fd5b6008600083815260200190815260200160002060020160009054906101000a900473ffffffffffffffffffffffffffffffffffffffff168073ffffffffffffffffffffffffffffffffffffffff163373ffffffffffffffffffffffffffffffffffffffff16146123e857600080fd5b600360009054906101000a900473ffffffffffffffffffffffffffffffffffffffff1673ffffffffffffffffffffffffffffffffffffffff1663150e3465336040518263ffffffff1660e01b815260040161244391906130b1565b602060405180830381865afa158015612460573d6000803e3d6000fd5b505050506040513d601f19601f820116820180604052508101906124849190613404565b61248d57600080fd5b60036008600085815260200190815260200160002060020160146101000a81548160ff0219169083600d8111156124c7576124c66133a9565b5b0217905550827f0629e88310c7d7365f7016cd64887485075e9789cf983c4dfe989e994d2cb61560405160405180910390a2505050565b80600a600d811115612513576125126133a9565b5b6008600083815260200190815260200160002060020160149054906101000a900460ff16600d811115612549576125486133a9565b5b1461255357600080fd5b600660009054906101000a900473ffffffffffffffffffffffffffffffffffffffff1673ffffffffffffffffffffffffffffffffffffffff16635da09b88336040518263ffffffff1660e01b81526004016125ae91906130b1565b602060405180830381865afa1580156125cb573d6000803e3d6000fd5b505050506040513d601f19601f820116820180604052508101906125ef9190613404565b6125f857600080fd5b336008600084815260200190815260200160002060020160006101000a81548173ffffffffffffffffffffffffffffffffffffffff021916908373ffffffffffffffffffffffffffffffffffffffff1602179055503360086000848152602001908152602001600020600e0160006101000a81548173ffffffffffffffffffffffffffffffffffffffff021916908373ffffffffffffffffffffffffffffffffffffffff160217905550600b6008600084815260200190815260200160002060020160146101000a81548160ff0219169083600d8111156126dc576126db6133a9565b5b0217905550817f322f34e90f2269750b3e28178631d975cc678db36f21098fe548b7f755ce0bd060405160405180910390a25050565b806003600d811115612727576127266133a9565b5b6008600083815260200190815260200160002060020160149054906101000a900460ff16600d81111561275d5761275c6133a9565b5b1461276757600080fd5b6008600083815260200190815260200160002060020160009054906101000a900473ffffffffffffffffffffffffffffffffffffffff168073ffffffffffffffffffffffffffffffffffffffff163373ffffffffffffffffffffffffffffffffffffffff16146127d657600080fd5b600360009054906101000a900473ffffffffffffffffffffffffffffffffffffffff1673ffffffffffffffffffffffffffffffffffffffff1663150e3465336040518263ffffffff1660e01b815260040161283191906130b1565b602060405180830381865afa15801561284e573d6000803e3d6000fd5b505050506040513d601f19601f820116820180604052508101906128729190613404565b61287b57600080fd5b60046008600085815260200190815260200160002060020160146101000a81548160ff0219169083600d8111156128b5576128b46133a9565b5b0217905550827faab87590386c916a1ee0b50a5325afde4e9a0c4e716b223a25731b3de952380660405160405180910390a2505050565b806005600d811115612901576129006133a9565b5b6008600083815260200190815260200160002060020160149054906101000a900460ff16600d811115612937576129366133a9565b5b1461294157600080fd5b6008600083815260200190815260200160002060020160009054906101000a900473ffffffffffffffffffffffffffffffffffffffff168073ffffffffffffffffffffffffffffffffffffffff163373ffffffffffffffffffffffffffffffffffffffff16146129b057600080fd5b600460009054906101000a900473ffffffffffffffffffffffffffffffffffffffff1673ffffffffffffffffffffffffffffffffffffffff1663b6de8783336040518263ffffffff1660e01b8152600401612a0b91906130b1565b602060405180830381865afa158015612a28573d6000803e3d6000fd5b505050506040513d601f19601f82011682018060405250810190612a4c9190613404565b612a5557600080fd5b60066008600085815260200190815260200160002060020160146101000a81548160ff0219169083600d811115612a8f57612a8e6133a9565b5b0217905550827f4c97e87e65215c2233bc76c7a6e145a8e4aa0b06895055ec964b965222fbd1a160405160405180910390a2505050565b612ace61186e565b612ad757600080fd5b612ae081612cd8565b50565b816007600d811115612af857612af76133a9565b5b6008600083815260200190815260200160002060020160149054906101000a900460ff16600d811115612b2e57612b2d6133a9565b5b14612b3857600080fd5b6008600084815260200190815260200160002060020160009054906101000a900473ffffffffffffffffffffffffffffffffffffffff168073ffffffffffffffffffffffffffffffffffffffff163373ffffffffffffffffffffffffffffffffffffffff1614612ba757600080fd5b600460009054906101000a900473ffffffffffffffffffffffffffffffffffffffff1673ffffffffffffffffffffffffffffffffffffffff1663b6de8783336040518263ffffffff1660e01b8152600401612c0291906130b1565b602060405180830381865afa158015612c1f573d6000803e3d6000fd5b505050506040513d601f19601f82011682018060405250810190612c439190613404565b612c4c57600080fd5b600880600086815260200190815260200160002060020160146101000a81548160ff0219169083600d811115612c8557612c846133a9565b5b0217905550826008600086815260200190815260200160002060040181905550837f0dab770ca23162c1a160748ffe3c2e812860f750368bb7a0161745f973c990c760405160405180910390a250505050565b600073ffffffffffffffffffffffffffffffffffffffff168173ffffffffffffffffffffffffffffffffffffffff1603612d1157600080fd5b8073ffffffffffffffffffffffffffffffffffffffff1660008054906101000a900473ffffffffffffffffffffffffffffffffffffffff1673ffffffffffffffffffffffffffffffffffffffff167f5c486528ec3e3f0ea91181cff8116f02bfa350e03b8b6f12e00765adbb5af85c60405160405180910390a3806000806101000a81548173ffffffffffffffffffffffffffffffffffffffff021916908373ffffffffffffffffffffffffffffffffffffffff16021790555050565b6000604051905090565b600080fd5b600080fd5b6000819050919050565b612df581612de2565b8114612e0057600080fd5b50565b600081359050612e1281612dec565b92915050565b600060208284031215612e2e57612e2d612dd8565b5b6000612e3c84828501612e03565b91505092915050565b612e4e81612de2565b82525050565b600081519050919050565b600082825260208201905092915050565b60005b83811015612e8e578082015181840152602081019050612e73565b60008484015250505050565b6000601f19601f8301169050919050565b6000612eb682612e54565b612ec08185612e5f565b9350612ed0818560208601612e70565b612ed981612e9a565b840191505092915050565b600073ffffffffffffffffffffffffffffffffffffffff82169050919050565b6000612f0f82612ee4565b9050919050565b612f1f81612f04565b82525050565b600061016082019050612f3b600083018e612e45565b612f48602083018d612e45565b8181036040830152612f5a818c612eab565b9050612f69606083018b612e45565b612f76608083018a612e45565b612f8360a0830189612e45565b612f9060c0830188612f16565b612f9d60e0830187612f16565b612fab610100830186612f16565b612fb9610120830185612f16565b612fc7610140830184612f16565b9c9b505050505050505050505050565b60008060408385031215612fee57612fed612dd8565b5b6000612ffc85828601612e03565b925050602061300d85828601612e03565b9150509250929050565b60006101008201905061302d600083018b612e45565b61303a602083018a612e45565b6130476040830189612f16565b6130546060830188612f16565b81810360808301526130668187612eab565b905081810360a083015261307a8186612eab565b905081810360c083015261308e8185612eab565b905081810360e08301526130a28184612eab565b90509998505050505050505050565b60006020820190506130c66000830184612f16565b92915050565b60008115159050919050565b6130e1816130cc565b82525050565b60006020820190506130fc60008301846130d8565b92915050565b600080fd5b600080fd5b7f4e487b7100000000000000000000000000000000000000000000000000000000600052604160045260246000fd5b61314482612e9a565b810181811067ffffffffffffffff821117156131635761316261310c565b5b80604052505050565b6000613176612dce565b9050613182828261313b565b919050565b600067ffffffffffffffff8211156131a2576131a161310c565b5b6131ab82612e9a565b9050602081019050919050565b82818337600083830152505050565b60006131da6131d584613187565b61316c565b9050828152602081018484840111156131f6576131f5613107565b5b6132018482856131b8565b509392505050565b600082601f83011261321e5761321d613102565b5b813561322e8482602086016131c7565b91505092915050565b60008060008060008060c0878903121561325457613253612dd8565b5b600061326289828a01612e03565b965050602087013567ffffffffffffffff81111561328357613282612ddd565b5b61328f89828a01613209565b955050604087013567ffffffffffffffff8111156132b0576132af612ddd565b5b6132bc89828a01613209565b945050606087013567ffffffffffffffff8111156132dd576132dc612ddd565b5b6132e989828a01613209565b935050608087013567ffffffffffffffff81111561330a57613309612ddd565b5b61331689828a01613209565b92505060a087013567ffffffffffffffff81111561333757613336612ddd565b5b61334389828a01613209565b9150509295509295509295565b61335981612f04565b811461336457600080fd5b50565b60008135905061337681613350565b92915050565b60006020828403121561339257613391612dd8565b5b60006133a084828501613367565b91505092915050565b7f4e487b7100000000000000000000000000000000000000000000000000000000600052602160045260246000fd5b6133e1816130cc565b81146133ec57600080fd5b50565b6000815190506133fe816133d8565b92915050565b60006020828403121561341a57613419612dd8565b5b6000613428848285016133ef565b91505092915050565b7f4e487b7100000000000000000000000000000000000000000000000000000000600052601160045260246000fd5b600061346b82612de2565b915061347683612de2565b925082820390508181111561348e5761348d613431565b5b92915050565b7f4e487b7100000000000000000000000000000000000000000000000000000000600052602260045260246000fd5b600060028204905060018216806134db57607f821691505b6020821081036134ee576134ed613494565b5b50919050565b60008190508160005260206000209050919050565b60006020601f8301049050919050565b600082821b905092915050565b6000600883026135567fffffffffffffffffffffffffffffffffffffffffffffffffffffffffffffffff82613519565b6135608683613519565b95508019841693508086168417925050509392505050565b6000819050919050565b600061359d61359861359384612de2565b613578565b612de2565b9050919050565b6000819050919050565b6135b783613582565b6135cb6135c3826135a4565b848454613526565b825550505050565b600090565b6135e06135d3565b6135eb8184846135ae565b505050565b5b8181101561360f576136046000826135d8565b6001810190506135f1565b5050565b601f82111561365457613625816134f4565b61362e84613509565b8101602085101561363d578190505b61365161364985613509565b8301826135f0565b50505b505050565b600082821c905092915050565b600061367760001984600802613659565b1980831691505092915050565b60006136908383613666565b9150826002028217905092915050565b6136a982612e54565b67ffffffffffffffff8111156136c2576136c161310c565b5b6136cc82546134c3565b6136d7828285613613565b600060209050601f83116001811461370a57600084156136f8578287015190505b6137028582613684565b86555061376a565b601f198416613718866134f4565b60005b828110156137405784890151825560018201915060208501945060208101905061371b565b8683101561375d5784890151613759601f891682613666565b8355505b6001600288020188555050505b505050505050565b600061377d82612de2565b915061378883612de2565b92508282019050808211156137a05761379f613431565b5b9291505056fea2646970667358221220dc29bccef8115892a43df5a28694038ba90fa00e8d148a8d8ba70df733a121e064736f6c63430008110033",
  "immutableReferences": {},
  "source": "// SPDX-License-Identifier: MIT\r\npragma solidity ^0.8.17;\r\n\r\nimport \"../sugarcore/Ownable.sol\";\r\nimport \"../sugaraccesscontrol/FarmerRole.sol\";\r\nimport \"../sugaraccesscontrol/MillRole.sol\";\r\nimport \"../sugaraccesscontrol/RefineryRole.sol\";\r\nimport \"../sugaraccesscontrol/DistributorRole.sol\";\r\nimport \"../sugaraccesscontrol/RetailerRole.sol\";\r\nimport \"../sugaraccesscontrol/ConsumerRole.sol\";\r\n\r\n// Define a contract 'Supplychain'\r\ncontract SupplyChain is Ownable {\r\n\r\n  // Define a variable called 'sku' for Stock Keeping Unit (SKU)\r\n  uint256 sku;\r\n\r\n  FarmerRole farmers;\r\n  MillRole mills;\r\n  RefineryRole refineries;\r\n  DistributorRole distributors;\r\n  RetailerRole retailers;\r\n  ConsumerRole consumers;\r\n\r\n  // Define a public mapping 'items' that maps the UPC to an Item.\r\n  mapping(uint256 => Item) items;\r\n\r\n  // Define enum 'State' with the following values:\r\n  enum State {\r\n    Harvested,              // 0\r\n    SentToMill,             // 1\r\n    ReceivedByMill,         // 2\r\n    Milled,                 // 3\r\n    SentToRefinery,         // 4\r\n    ReceivedByRefinery,     // 5\r\n    Refined,                // 6\r\n    Packed,                 // 7\r\n    ForSaleToDistributor,   // 8\r\n    BoughtByDistributor,    // 9\r\n    SentToRetailer,         // 10\r\n    ReceivedByRetailer,     // 11\r\n    ForSaleToConsumer,      // 12\r\n    BoughtByConsumer        // 13\r\n  }\r\n\r\n  State constant defaultState = State.Harvested;\r\n\r\n  // Define a struct 'Item' with the following fields:\r\n  struct Item {\r\n    uint256 sku; // Stock Keeping Unit (SKU)\r\n    uint256 upc; // Universal Product Code (UPC), generated by the Farmer, goes on the package, can be verified by the Consumer\r\n    address ownerID;\r\n    State itemState;  // Product State as represented in the enum above \r\n    string productNotes;\r\n    uint256 priceToDistributor;\r\n    uint256 priceToConsumer; \r\n    address originFarmerID; \r\n    string originFarmName; \r\n    string originFarmInformation; \r\n    string originFarmLatitude; \r\n    string originFarmLongitude;  \r\n    address millID;\r\n    address refineryID; \r\n    address distributorID;  \r\n    address retailerID; \r\n    address consumerID;\r\n  }\r\n\r\n  // Define 8 events with the same 8 state values and accept 'upc' as input argument\r\n  event Harvested(uint256 indexed upc);\r\n  event SentToMill(uint256 indexed upc);\r\n  event ReceivedByMill(uint256 indexed upc);\r\n  event Milled(uint256 indexed upc);\r\n  event SentToRefinery(uint256 indexed upc);\r\n  event ReceivedByRefinery(uint256 indexed upc);\r\n  event Refined(uint256 indexed upc);\r\n  event Packed(uint256 indexed upc);\r\n  event ForSaleToDistributor(uint256 indexed upc);\r\n  event BoughtByDistributor(uint256 indexed upc);\r\n  event SentToRetailer(uint256 indexed upc);\r\n  event ReceivedByRetailer(uint256 indexed upc);\r\n  event ForSaleToConsumer(uint256 indexed upc);\r\n  event BoughtByConsumer(uint256 indexed upc);\r\n\r\n  // Define a modifer that verifies the Caller\r\n  modifier verifyCaller(address _address) {\r\n    require(msg.sender == _address); \r\n    _;\r\n  }\r\n\r\n  modifier isFarmer() {\r\n    require(farmers.isFarmer(msg.sender));\r\n    _;\r\n  }\r\n\r\n  modifier isMill() {\r\n    require(mills.isMill(msg.sender));\r\n    _;\r\n  }\r\n\r\n  modifier isRefinery() {\r\n    require(refineries.isRefinery(msg.sender));\r\n    _;\r\n  }\r\n\r\n  modifier isDistributor() {\r\n    require(distributors.isDistributor(msg.sender));\r\n    _;\r\n  }\r\n\r\n  modifier isRetailer() {\r\n    require(retailers.isRetailer(msg.sender));\r\n    _;\r\n  }\r\n\r\n  modifier isConsumer() {\r\n    require(consumers.isConsumer(msg.sender));\r\n    _;\r\n  }\r\n\r\n  // Define a modifier that checks if the paid amount is sufficient to cover the price\r\n  modifier paidEnough(uint256 _price) { \r\n    require(msg.value >= _price); \r\n    _;\r\n  }\r\n  \r\n  // Define a modifier that checks the price and refunds the remaining balance\r\n  modifier checkValue(uint256 _price, address buyer) {\r\n    _;\r\n    uint256 amountToReturn = msg.value - _price;\r\n    payable(buyer).transfer(amountToReturn);\r\n  }\r\n\r\n  // Define a modifier that checks if an item.state of a upc is Harvested\r\n  modifier harvested(uint256 _upc) {\r\n    require(items[_upc].itemState == State.Harvested);\r\n    _;\r\n  }\r\n\r\n  // Define a modifier that checks if an item.state of a upc is SentToMill\r\n  modifier sentToMill(uint256 _upc) {\r\n    require(items[_upc].itemState == State.SentToMill);\r\n    _;\r\n  }\r\n\r\n  // Define a modifier that checks if an item.state of a upc is ReceivedByMill\r\n  modifier receivedByMill(uint256 _upc) {\r\n    require(items[_upc].itemState == State.ReceivedByMill);\r\n    _;\r\n  }\r\n\r\n  // Define a modifier that checks if an item.state of a upc is Milled\r\n  modifier milled(uint256 _upc) {\r\n    require(items[_upc].itemState == State.Milled);\r\n    _;\r\n  }\r\n\r\n  // Define a modifier that checks if an item.state of a upc is SentToRefinery\r\n  modifier sentToRefinery(uint256 _upc) {\r\n    require(items[_upc].itemState == State.SentToRefinery);\r\n    _;\r\n  }\r\n\r\n  // Define a modifier that checks if an item.state of a upc is ReceivedByRefinery\r\n  modifier receivedByRefinery(uint256 _upc) {\r\n    require(items[_upc].itemState == State.ReceivedByRefinery);\r\n    _;\r\n  }\r\n\r\n  // Define a modifier that checks if an item.state of a upc is Refined\r\n  modifier refined(uint256 _upc) {\r\n    require(items[_upc].itemState == State.Refined);\r\n    _;\r\n  }\r\n  \r\n  // Define a modifier that checks if an item.state of a upc is Packed\r\n  modifier packed(uint256 _upc) {\r\n    require(items[_upc].itemState == State.Packed);\r\n    _;\r\n  }\r\n\r\n  // Define a modifier that checks if an item.state of a upc is ForSaleToDistributor\r\n  modifier forSaleToDistributor(uint256 _upc) {\r\n    require(items[_upc].itemState == State.ForSaleToDistributor);\r\n    _;\r\n  }\r\n\r\n  // Define a modifier that checks if an item.state of a upc is BoughtByDistributor\r\n  modifier boughtByDistributor(uint256 _upc) {\r\n    require(items[_upc].itemState == State.BoughtByDistributor);\r\n    _;\r\n  }\r\n  \r\n  // Define a modifier that checks if an item.state of a upc is SentToRetailer\r\n  modifier sentToRetailer(uint256 _upc) {\r\n    require(items[_upc].itemState == State.SentToRetailer);\r\n    _;\r\n  }\r\n\r\n  // Define a modifier that checks if an item.state of a upc is ReceivedByRetailer\r\n  modifier receivedByRetailer(uint256 _upc) {\r\n    require(items[_upc].itemState == State.ReceivedByRetailer);\r\n    _;\r\n  }\r\n\r\n  // Define a modifier that checks if an item.state of a upc is ForSaleToConsumer\r\n  modifier forSaleToConsumer(uint256 _upc) {\r\n    require(items[_upc].itemState == State.ForSaleToConsumer);\r\n    _;\r\n  }\r\n\r\n  // Define a modifier that checks if an item.state of a upc is BoughtByConsumer\r\n  modifier boughtByConsumer(uint256 _upc) {\r\n    require(items[_upc].itemState == State.BoughtByConsumer);\r\n    _;\r\n  }\r\n\r\n  constructor(\r\n    address farmerRole,\r\n    address millRole,\r\n    address refineryRole,\r\n    address distributorRole,\r\n    address retailerRole,\r\n    address consumerRole\r\n  ) payable {\r\n    sku = 1;\r\n    \r\n    farmers = FarmerRole(farmerRole);\r\n    mills = MillRole(millRole);\r\n    refineries = RefineryRole(refineryRole);\r\n    distributors = DistributorRole(distributorRole);\r\n    retailers = RetailerRole(retailerRole);\r\n    consumers = ConsumerRole(consumerRole);\r\n  }\r\n\r\n  // Define a function 'kill' if required\r\n  function kill() public {\r\n    if (msg.sender == owner()) {\r\n      selfdestruct(payable(owner()));\r\n    }\r\n  }\r\n\r\n  // Define a function 'harvestSugarcane' that allows a farmer to mark an item 'Harvested'\r\n  function harvestSugarcane(\r\n    uint256 _upc,\r\n    string memory _originFarmName,\r\n    string memory _originFarmInformation,\r\n    string memory _originFarmLatitude,\r\n    string memory _originFarmLongitude,\r\n    string memory _productNotes\r\n  ) public \r\n    isFarmer()\r\n  {\r\n    require(items[_upc].sku == 0);\r\n\r\n    // Add the new item as part of Harvest\r\n    items[_upc] = Item(\r\n      sku,\r\n      _upc,\r\n      msg.sender,\r\n      State.Harvested,\r\n      _productNotes,\r\n      0,\r\n      0,\r\n      msg.sender,\r\n      _originFarmName,\r\n      _originFarmInformation,\r\n      _originFarmLatitude,\r\n      _originFarmLongitude,\r\n      address(0),\r\n      address(0),\r\n      address(0),\r\n      address(0),\r\n      address(0)\r\n    );\r\n    \r\n    // Increment sku\r\n    sku = sku + 1;\r\n\r\n    // Emit the appropriate event\r\n    emit Harvested(_upc);\r\n  }\r\n\r\n  // Define a function 'sendToMill' that allows a farmer to mark an item 'SentToMill'\r\n  function sendToMill(uint _upc) public \r\n    // Call modifier to check if upc has passed previous supply chain stage\r\n    harvested(_upc)\r\n    // Call modifier to verify caller of this function\r\n    verifyCaller(items[_upc].ownerID)\r\n    isFarmer()\r\n  {\r\n    // Update the appropriate fields\r\n    items[_upc].itemState = State.SentToMill;\r\n    \r\n    // Emit the appropriate event\r\n    emit SentToMill(_upc);\r\n  }\r\n\r\n  // Define a function 'receiveByMill' that allows a mill to mark an item 'ReceivedByMill'\r\n  function receiveByMill(uint _upc) public \r\n    // Call modifier to check if upc has passed previous supply chain stage\r\n    sentToMill(_upc)\r\n    // Call modifier to verify caller of this function\r\n    isMill()\r\n  {\r\n    // Update the appropriate fields\r\n    items[_upc].ownerID = msg.sender;\r\n    items[_upc].millID = msg.sender;\r\n    items[_upc].itemState = State.ReceivedByMill;\r\n    \r\n    // Emit the appropriate event\r\n    emit ReceivedByMill(_upc);\r\n  }\r\n\r\n  // Define a function 'millSugarcane' that allows a mill to mark an item 'Milled'\r\n  function millSugarcane(uint _upc) public \r\n    // Call modifier to check if upc has passed previous supply chain stage\r\n    receivedByMill(_upc)\r\n    // Call modifier to verify caller of this function\r\n    verifyCaller(items[_upc].ownerID)\r\n    isMill()\r\n  {\r\n    // Update the appropriate fields\r\n    items[_upc].itemState = State.Milled;\r\n    \r\n    // Emit the appropriate event\r\n    emit Milled(_upc);\r\n  }\r\n\r\n  // Define a function 'sendToRefinery' that allows a mill to mark an item 'SentToRefinery'\r\n  function sendToRefinery(uint _upc) public \r\n    // Call modifier to check if upc has passed previous supply chain stage\r\n    milled(_upc)\r\n    // Call modifier to verify caller of this function\r\n    verifyCaller(items[_upc].ownerID)\r\n    isMill()\r\n  {\r\n    // Update the appropriate fields\r\n    items[_upc].itemState = State.SentToRefinery;\r\n    \r\n    // Emit the appropriate event\r\n    emit SentToRefinery(_upc);\r\n  }\r\n\r\n  // Define a function 'receiveByRefinery' that allows a refinery to mark an item 'ReceivedByRefinery'\r\n  function receiveByRefinery(uint _upc) public \r\n    // Call modifier to check if upc has passed previous supply chain stage\r\n    sentToRefinery(_upc)\r\n    // Call modifier to verify caller of this function\r\n    isRefinery()\r\n  {\r\n    // Update the appropriate fields\r\n    items[_upc].ownerID = msg.sender;\r\n    items[_upc].refineryID = msg.sender;\r\n    items[_upc].itemState = State.ReceivedByRefinery;\r\n    \r\n    // Emit the appropriate event\r\n    emit ReceivedByRefinery(_upc);\r\n  }\r\n\r\n  // Define a function 'refineRawSugar' that allows a refinery to mark an item 'Refined'\r\n  function refineRawSugar(uint _upc) public \r\n    // Call modifier to check if upc has passed previous supply chain stage\r\n    receivedByRefinery(_upc)\r\n    // Call modifier to verify caller of this function\r\n    verifyCaller(items[_upc].ownerID)\r\n    isRefinery()\r\n  {\r\n    // Update the appropriate fields\r\n    items[_upc].itemState = State.Refined;\r\n    \r\n    // Emit the appropriate event\r\n    emit Refined(_upc);\r\n  }\r\n\r\n  // Define a function 'packRefinedSugar' that allows a farmer to mark an item 'Packed'\r\n  function packRefinedSugar(uint _upc) public \r\n    // Call modifier to check if upc has passed previous supply chain stage\r\n    refined(_upc)\r\n    // Call modifier to verify caller of this function\r\n    verifyCaller(items[_upc].ownerID)\r\n    isRefinery()\r\n  {\r\n    // Update the appropriate fields\r\n    items[_upc].itemState = State.Packed;\r\n    \r\n    // Emit the appropriate event\r\n    emit Packed(_upc);\r\n  }\r\n\r\n  // Define a function 'sellToDistributor' that allows a refinery to mark an item 'ForSaleToDistributor'\r\n  function sellToDistributor(uint _upc, uint _price) public \r\n    // Call modifier to check if upc has passed previous supply chain stage\r\n    packed(_upc)\r\n    // Call modifier to verify caller of this function\r\n    verifyCaller(items[_upc].ownerID)\r\n    isRefinery()\r\n  {\r\n    // Update the appropriate fields\r\n    items[_upc].itemState = State.ForSaleToDistributor;\r\n    items[_upc].priceToDistributor = _price;\r\n\r\n    // Emit the appropriate event\r\n    emit ForSaleToDistributor(_upc);\r\n  }\r\n\r\n  // Define a function 'buyByDistributor' that allows the disributor to mark an item 'BoughtByDistributor'\r\n  // Use the above defined modifiers to check if the item is available for sale, if the buyer has paid enough, \r\n  // and any excess ether sent is refunded back to the buyer\r\n  function buyByDistributor(uint _upc) public payable \r\n    // Call modifier to check if upc has passed previous supply chain stage\r\n    forSaleToDistributor(_upc)\r\n    isDistributor()\r\n    // Call modifer to check if buyer has paid enough\r\n    paidEnough(items[_upc].priceToDistributor)\r\n    // Call modifer to send any excess ether back to buyer\r\n    checkValue(items[_upc].priceToDistributor, msg.sender)\r\n  {\r\n    // Update the appropriate fields - ownerID, distributorID, itemState\r\n    items[_upc].ownerID = msg.sender;\r\n    items[_upc].distributorID = msg.sender;\r\n    items[_upc].itemState = State.BoughtByDistributor;\r\n    \r\n    // Transfer money to refinery\r\n    payable(items[_upc].refineryID).transfer(items[_upc].priceToDistributor);\r\n\r\n    // emit the appropriate event\r\n    emit BoughtByDistributor(_upc);\r\n  }\r\n\r\n  // Define a function 'sendToRetailer' that allows the distributor to mark an item 'SentToRetailer'\r\n  // Use the above modifers to check if the item is sold\r\n  function sendToRetailer(uint _upc) public \r\n    // Call modifier to check if upc has passed previous supply chain stage\r\n    boughtByDistributor(_upc)\r\n    // Call modifier to verify caller of this function\r\n    verifyCaller(items[_upc].ownerID)\r\n    isDistributor()\r\n  {\r\n    // Update the appropriate fields\r\n    items[_upc].itemState = State.SentToRetailer;\r\n\r\n    // Emit the appropriate event\r\n    emit SentToRetailer(_upc);\r\n  }\r\n\r\n  // Define a function 'receiveByRetailer' that allows the retailer to mark an item 'ReceivedByRetailer'\r\n  // Use the above modifiers to check if the item is shipped\r\n  function receiveByRetailer(uint _upc) public \r\n    // Call modifier to check if upc has passed previous supply chain stage\r\n    sentToRetailer(_upc)\r\n    // Access Control List enforced by calling Smart Contract / DApp\r\n    isRetailer()\r\n  {\r\n    // Update the appropriate fields - ownerID, retailerID, itemState\r\n    items[_upc].ownerID = msg.sender;\r\n    items[_upc].retailerID = msg.sender;\r\n    items[_upc].itemState = State.ReceivedByRetailer;\r\n\r\n    // Emit the appropriate event\r\n    emit ReceivedByRetailer(_upc);\r\n  }\r\n\r\n    // Define a function 'sellToConsumer' that allows a retailer to mark an item 'ForSaleToConsumer'\r\n  function sellToConsumer(uint _upc, uint _price) public \r\n    // Call modifier to check if upc has passed previous supply chain stage\r\n    receivedByRetailer(_upc)\r\n    // Call modifier to verify caller of this function\r\n    verifyCaller(items[_upc].ownerID)\r\n    isRetailer()\r\n  {\r\n    // Update the appropriate fields\r\n    items[_upc].itemState = State.ForSaleToConsumer;\r\n    items[_upc].priceToConsumer = _price;\r\n\r\n    // Emit the appropriate event\r\n    emit ForSaleToConsumer(_upc);\r\n  }\r\n\r\n  // Define a function 'buyByConsumer' that allows the consumer to mark an item 'BoughtByConsumer'\r\n  // Use the above defined modifiers to check if the item is available for sale, if the buyer has paid enough, \r\n  // and any excess ether sent is refunded back to the buyer\r\n  function buyByConsumer(uint _upc) public payable \r\n    // Call modifier to check if upc has passed previous supply chain stage\r\n    forSaleToConsumer(_upc)\r\n    isConsumer()\r\n    // Call modifer to check if buyer has paid enough\r\n    paidEnough(items[_upc].priceToConsumer)\r\n    // Call modifer to send any excess ether back to buyer\r\n    checkValue(items[_upc].priceToConsumer, msg.sender)\r\n  {\r\n    // Update the appropriate fields - ownerID, distributorID, itemState\r\n    items[_upc].ownerID = msg.sender;\r\n    items[_upc].consumerID = msg.sender;\r\n    items[_upc].itemState = State.BoughtByConsumer;\r\n    \r\n    // Transfer money to refinery\r\n    payable(items[_upc].retailerID).transfer(items[_upc].priceToConsumer);\r\n\r\n    // emit the appropriate event\r\n    emit BoughtByConsumer(_upc);\r\n  }\r\n\r\n  // Define a function 'fetchItemBufferOne' that fetches the data\r\n  function fetchItemBufferOne(uint _upc) public view returns (\r\n    uint256 itemSKU,\r\n    uint256 itemUPC,\r\n    address ownerID,\r\n    address originFarmerID,\r\n    string memory originFarmName,\r\n    string memory originFarmInformation,\r\n    string memory originFarmLatitude,\r\n    string memory originFarmLongitude\r\n  ) {\r\n    // Assign values to the 8 parameters\r\n    itemSKU = items[_upc].sku;\r\n    itemUPC = items[_upc].upc;\r\n    ownerID = items[_upc].ownerID;\r\n    originFarmerID = items[_upc].originFarmerID;\r\n    originFarmName = items[_upc].originFarmName;\r\n    originFarmInformation = items[_upc].originFarmInformation;\r\n    originFarmLatitude = items[_upc].originFarmLatitude;\r\n    originFarmLongitude = items[_upc].originFarmLongitude;\r\n\r\n    return (\r\n      itemSKU,\r\n      itemUPC,\r\n      ownerID,\r\n      originFarmerID,\r\n      originFarmName,\r\n      originFarmInformation,\r\n      originFarmLatitude,\r\n      originFarmLongitude\r\n    );\r\n  }\r\n\r\n  // Define a function 'fetchItemBufferTwo' that fetches the data\r\n  function fetchItemBufferTwo(uint _upc) public view returns (\r\n    uint256 itemSKU,\r\n    uint256 itemUPC,\r\n    string memory productNotes,\r\n    uint256 priceToDistributor,\r\n    uint256 priceToConsumer,\r\n    uint256 itemState,\r\n    address millID,\r\n    address refineryID,\r\n    address distributorID,\r\n    address retailerID,\r\n    address consumerID\r\n  ) {\r\n    // Assign values to the 9 parameters\r\n    itemSKU = items[_upc].sku;\r\n    itemUPC = items[_upc].upc;\r\n    productNotes = items[_upc].productNotes;\r\n    priceToDistributor = items[_upc].priceToDistributor;\r\n    priceToConsumer = items[_upc].priceToConsumer;\r\n    itemState = uint256(items[_upc].itemState);\r\n    millID = items[_upc].millID;\r\n    refineryID = items[_upc].refineryID;\r\n    distributorID = items[_upc].distributorID;\r\n    retailerID = items[_upc].retailerID;\r\n    consumerID = items[_upc].consumerID;\r\n    \r\n    return (\r\n      itemSKU,\r\n      itemUPC,\r\n      productNotes,\r\n      priceToDistributor,\r\n      priceToConsumer,\r\n      itemState,\r\n      millID,\r\n      refineryID,\r\n      distributorID,\r\n      retailerID,\r\n      consumerID\r\n    );\r\n  }\r\n}\r\n",
  "sourcePath": "C:\\Users\\Edward\\Desktop\\Project 3\\nd1309-Project-6b-Example-Template\\project-6\\contracts\\sugarbase\\SupplyChain.sol",
  "compiler": {
    "name": "solc",
    "version": "0.8.17+commit.8df45f5f.Emscripten.clang"
  },
  "schemaVersion": "3.4.11",
  "updatedAt": "2022-12-19T15:04:20.423Z",
  "networkType": "ethereum",
  "devdoc": {
    "kind": "dev",
    "methods": {},
    "version": 1
  },
  "userdoc": {
    "kind": "user",
    "methods": {
      "isOwner()": {
        "notice": "Check if the calling address is the owner of the contract"
      },
      "owner()": {
        "notice": "Look up the address of the owner"
      },
      "renounceOwnership()": {
        "notice": "Define a function to renounce ownerhip"
      },
      "transferOwnership(address)": {
        "notice": "Define a public function to transfer ownership"
      }
    },
    "version": 1
  }
}